{
	"contracts/Lottery/001.sol": {
		"lottery": {
			"abi": [
				{
					"inputs": [],
					"stateMutability": "nonpayable",
					"type": "constructor"
				},
				{
					"inputs": [],
					"name": "getPlayers",
					"outputs": [
						{
							"internalType": "address[]",
							"name": "",
							"type": "address[]"
						}
					],
					"stateMutability": "view",
					"type": "function"
				},
				{
					"inputs": [],
					"name": "join",
					"outputs": [],
					"stateMutability": "payable",
					"type": "function"
				},
				{
					"inputs": [],
					"name": "manager",
					"outputs": [
						{
							"internalType": "address",
							"name": "",
							"type": "address"
						}
					],
					"stateMutability": "view",
					"type": "function"
				},
				{
					"inputs": [],
					"name": "pickWinner",
					"outputs": [],
					"stateMutability": "nonpayable",
					"type": "function"
				},
				{
					"inputs": [
						{
							"internalType": "uint256",
							"name": "",
							"type": "uint256"
						}
					],
					"name": "players",
					"outputs": [
						{
							"internalType": "address",
							"name": "",
							"type": "address"
						}
					],
					"stateMutability": "view",
					"type": "function"
				}
			],
			"devdoc": {
				"kind": "dev",
				"methods": {},
				"version": 1
			},
			"evm": {
				"assembly": "    /* \"contracts/Lottery/001.sol\":60:1137  contract lottery {... */\n  mstore(0x40, 0x80)\n    /* \"contracts/Lottery/001.sol\":146:199  constructor() {... */\n  callvalue\n  dup1\n  iszero\n  tag_1\n  jumpi\n  0x00\n  dup1\n  revert\ntag_1:\n  pop\n    /* \"contracts/Lottery/001.sol\":181:191  msg.sender */\n  caller\n    /* \"contracts/Lottery/001.sol\":171:178  manager */\n  0x00\n  dup1\n    /* \"contracts/Lottery/001.sol\":171:191  manager = msg.sender */\n  0x0100\n  exp\n  dup2\n  sload\n  dup2\n  0xffffffffffffffffffffffffffffffffffffffff\n  mul\n  not\n  and\n  swap1\n  dup4\n  0xffffffffffffffffffffffffffffffffffffffff\n  and\n  mul\n  or\n  swap1\n  sstore\n  pop\n    /* \"contracts/Lottery/001.sol\":60:1137  contract lottery {... */\n  dataSize(sub_0)\n  dup1\n  dataOffset(sub_0)\n  0x00\n  codecopy\n  0x00\n  return\nstop\n\nsub_0: assembly {\n        /* \"contracts/Lottery/001.sol\":60:1137  contract lottery {... */\n      mstore(0x40, 0x80)\n      jumpi(tag_1, lt(calldatasize, 0x04))\n      shr(0xe0, calldataload(0x00))\n      dup1\n      0x481c6a75\n      eq\n      tag_2\n      jumpi\n      dup1\n      0x5d495aea\n      eq\n      tag_3\n      jumpi\n      dup1\n      0x8b5b9ccc\n      eq\n      tag_4\n      jumpi\n      dup1\n      0xb688a363\n      eq\n      tag_5\n      jumpi\n      dup1\n      0xf71d96cb\n      eq\n      tag_6\n      jumpi\n    tag_1:\n      0x00\n      dup1\n      revert\n        /* \"contracts/Lottery/001.sol\":84:106  address public manager */\n    tag_2:\n      callvalue\n      dup1\n      iszero\n      tag_7\n      jumpi\n      0x00\n      dup1\n      revert\n    tag_7:\n      pop\n      tag_8\n      tag_9\n      jump\t// in\n    tag_8:\n      mload(0x40)\n      tag_10\n      swap2\n      swap1\n      tag_11\n      jump\t// in\n    tag_10:\n      mload(0x40)\n      dup1\n      swap2\n      sub\n      swap1\n      return\n        /* \"contracts/Lottery/001.sol\":531:890  function pickWinner() public restricted {... */\n    tag_3:\n      callvalue\n      dup1\n      iszero\n      tag_12\n      jumpi\n      0x00\n      dup1\n      revert\n    tag_12:\n      pop\n      tag_13\n      tag_14\n      jump\t// in\n    tag_13:\n      stop\n        /* \"contracts/Lottery/001.sol\":1040:1134  function getPlayers() public view returns (address[] memory) {... */\n    tag_4:\n      callvalue\n      dup1\n      iszero\n      tag_15\n      jumpi\n      0x00\n      dup1\n      revert\n    tag_15:\n      pop\n      tag_16\n      tag_17\n      jump\t// in\n    tag_16:\n      mload(0x40)\n      tag_18\n      swap2\n      swap1\n      tag_19\n      jump\t// in\n    tag_18:\n      mload(0x40)\n      dup1\n      swap2\n      sub\n      swap1\n      return\n        /* \"contracts/Lottery/001.sol\":207:353  function join() public payable {... */\n    tag_5:\n      tag_20\n      tag_21\n      jump\t// in\n    tag_20:\n      stop\n        /* \"contracts/Lottery/001.sol\":113:137  address[] public players */\n    tag_6:\n      callvalue\n      dup1\n      iszero\n      tag_22\n      jumpi\n      0x00\n      dup1\n      revert\n    tag_22:\n      pop\n      tag_23\n      0x04\n      dup1\n      calldatasize\n      sub\n      dup2\n      add\n      swap1\n      tag_24\n      swap2\n      swap1\n      tag_25\n      jump\t// in\n    tag_24:\n      tag_26\n      jump\t// in\n    tag_23:\n      mload(0x40)\n      tag_27\n      swap2\n      swap1\n      tag_11\n      jump\t// in\n    tag_27:\n      mload(0x40)\n      dup1\n      swap2\n      sub\n      swap1\n      return\n        /* \"contracts/Lottery/001.sol\":84:106  address public manager */\n    tag_9:\n      0x00\n      dup1\n      sload\n      swap1\n      0x0100\n      exp\n      swap1\n      div\n      0xffffffffffffffffffffffffffffffffffffffff\n      and\n      dup2\n      jump\t// out\n        /* \"contracts/Lottery/001.sol\":531:890  function pickWinner() public restricted {... */\n    tag_14:\n        /* \"contracts/Lottery/001.sol\":953:960  manager */\n      0x00\n      dup1\n      sload\n      swap1\n      0x0100\n      exp\n      swap1\n      div\n      0xffffffffffffffffffffffffffffffffffffffff\n      and\n        /* \"contracts/Lottery/001.sol\":939:960  msg.sender == manager */\n      0xffffffffffffffffffffffffffffffffffffffff\n      and\n        /* \"contracts/Lottery/001.sol\":939:949  msg.sender */\n      caller\n        /* \"contracts/Lottery/001.sol\":939:960  msg.sender == manager */\n      0xffffffffffffffffffffffffffffffffffffffff\n      and\n      eq\n        /* \"contracts/Lottery/001.sol\":931:1012  require(msg.sender == manager, \"This function can only be called by the manager\") */\n      tag_29\n      jumpi\n      mload(0x40)\n      0x08c379a000000000000000000000000000000000000000000000000000000000\n      dup2\n      mstore\n      0x04\n      add\n      tag_30\n      swap1\n      tag_31\n      jump\t// in\n    tag_30:\n      mload(0x40)\n      dup1\n      swap2\n      sub\n      swap1\n      revert\n    tag_29:\n        /* \"contracts/Lottery/001.sol\":582:598  uint businessFee */\n      0x00\n        /* \"contracts/Lottery/001.sol\":629:632  100 */\n      0x64\n        /* \"contracts/Lottery/001.sol\":625:626  1 */\n      0x01\n        /* \"contracts/Lottery/001.sol\":601:622  address(this).balance */\n      selfbalance\n        /* \"contracts/Lottery/001.sol\":601:626  address(this).balance * 1 */\n      tag_33\n      swap2\n      swap1\n      tag_34\n      jump\t// in\n    tag_33:\n        /* \"contracts/Lottery/001.sol\":601:632  address(this).balance * 1 / 100 */\n      tag_35\n      swap2\n      swap1\n      tag_36\n      jump\t// in\n    tag_35:\n        /* \"contracts/Lottery/001.sol\":582:632  uint businessFee = address(this).balance * 1 / 100 */\n      swap1\n      pop\n        /* \"contracts/Lottery/001.sol\":643:653  uint prize */\n      0x00\n        /* \"contracts/Lottery/001.sol\":680:691  businessFee */\n      dup2\n        /* \"contracts/Lottery/001.sol\":656:677  address(this).balance */\n      selfbalance\n        /* \"contracts/Lottery/001.sol\":656:691  address(this).balance - businessFee */\n      tag_37\n      swap2\n      swap1\n      tag_38\n      jump\t// in\n    tag_37:\n        /* \"contracts/Lottery/001.sol\":643:691  uint prize = address(this).balance - businessFee */\n      swap1\n      pop\n        /* \"contracts/Lottery/001.sol\":712:719  manager */\n      0x00\n      dup1\n      sload\n      swap1\n      0x0100\n      exp\n      swap1\n      div\n      0xffffffffffffffffffffffffffffffffffffffff\n      and\n        /* \"contracts/Lottery/001.sol\":704:729  payable(manager).transfer */\n      0xffffffffffffffffffffffffffffffffffffffff\n      and\n        /* \"contracts/Lottery/001.sol\":704:742  payable(manager).transfer(businessFee) */\n      0x08fc\n        /* \"contracts/Lottery/001.sol\":730:741  businessFee */\n      dup4\n        /* \"contracts/Lottery/001.sol\":704:742  payable(manager).transfer(businessFee) */\n      swap1\n      dup2\n      iszero\n      mul\n      swap1\n      mload(0x40)\n      0x00\n      mload(0x40)\n      dup1\n      dup4\n      sub\n      dup2\n      dup6\n      dup9\n      dup9\n      call\n      swap4\n      pop\n      pop\n      pop\n      pop\n      iszero\n      dup1\n      iszero\n      tag_40\n      jumpi\n      returndatasize\n      0x00\n      dup1\n      returndatacopy\n      revert(0x00, returndatasize)\n    tag_40:\n      pop\n        /* \"contracts/Lottery/001.sol\":755:765  uint index */\n      0x00\n        /* \"contracts/Lottery/001.sol\":779:786  players */\n      0x01\n        /* \"contracts/Lottery/001.sol\":779:793  players.length */\n      dup1\n      sload\n      swap1\n      pop\n        /* \"contracts/Lottery/001.sol\":768:776  random() */\n      tag_41\n        /* \"contracts/Lottery/001.sol\":768:774  random */\n      tag_42\n        /* \"contracts/Lottery/001.sol\":768:776  random() */\n      jump\t// in\n    tag_41:\n        /* \"contracts/Lottery/001.sol\":768:793  random() % players.length */\n      tag_43\n      swap2\n      swap1\n      tag_44\n      jump\t// in\n    tag_43:\n        /* \"contracts/Lottery/001.sol\":755:793  uint index = random() % players.length */\n      swap1\n      pop\n        /* \"contracts/Lottery/001.sol\":814:821  players */\n      0x01\n        /* \"contracts/Lottery/001.sol\":822:827  index */\n      dup2\n        /* \"contracts/Lottery/001.sol\":814:828  players[index] */\n      dup2\n      sload\n      dup2\n      lt\n      tag_45\n      jumpi\n      tag_46\n      tag_47\n      jump\t// in\n    tag_46:\n    tag_45:\n      swap1\n      0x00\n      mstore\n      keccak256(0x00, 0x20)\n      add\n      0x00\n      swap1\n      sload\n      swap1\n      0x0100\n      exp\n      swap1\n      div\n      0xffffffffffffffffffffffffffffffffffffffff\n      and\n        /* \"contracts/Lottery/001.sol\":806:838  payable(players[index]).transfer */\n      0xffffffffffffffffffffffffffffffffffffffff\n      and\n        /* \"contracts/Lottery/001.sol\":806:845  payable(players[index]).transfer(prize) */\n      0x08fc\n        /* \"contracts/Lottery/001.sol\":839:844  prize */\n      dup4\n        /* \"contracts/Lottery/001.sol\":806:845  payable(players[index]).transfer(prize) */\n      swap1\n      dup2\n      iszero\n      mul\n      swap1\n      mload(0x40)\n      0x00\n      mload(0x40)\n      dup1\n      dup4\n      sub\n      dup2\n      dup6\n      dup9\n      dup9\n      call\n      swap4\n      pop\n      pop\n      pop\n      pop\n      iszero\n      dup1\n      iszero\n      tag_50\n      jumpi\n      returndatasize\n      0x00\n      dup1\n      returndatacopy\n      revert(0x00, returndatasize)\n    tag_50:\n      pop\n        /* \"contracts/Lottery/001.sol\":880:881  0 */\n      0x00\n        /* \"contracts/Lottery/001.sol\":866:882  new address[](0) */\n      0xffffffffffffffff\n      dup2\n      gt\n      iszero\n      tag_51\n      jumpi\n      tag_52\n      tag_53\n      jump\t// in\n    tag_52:\n    tag_51:\n      mload(0x40)\n      swap1\n      dup1\n      dup3\n      mstore\n      dup1\n      0x20\n      mul\n      0x20\n      add\n      dup3\n      add\n      0x40\n      mstore\n      dup1\n      iszero\n      tag_54\n      jumpi\n      dup2\n      0x20\n      add\n      0x20\n      dup3\n      mul\n      dup1\n      calldatasize\n      dup4\n      calldatacopy\n      dup1\n      dup3\n      add\n      swap2\n      pop\n      pop\n      swap1\n      pop\n    tag_54:\n      pop\n        /* \"contracts/Lottery/001.sol\":856:863  players */\n      0x01\n        /* \"contracts/Lottery/001.sol\":856:882  players = new address[](0) */\n      swap1\n      dup1\n      mload\n      swap1\n      0x20\n      add\n      swap1\n      tag_55\n      swap3\n      swap2\n      swap1\n      tag_56\n      jump\t// in\n    tag_55:\n      pop\n        /* \"contracts/Lottery/001.sol\":571:890  {... */\n      pop\n      pop\n      pop\n        /* \"contracts/Lottery/001.sol\":531:890  function pickWinner() public restricted {... */\n      jump\t// out\n        /* \"contracts/Lottery/001.sol\":1040:1134  function getPlayers() public view returns (address[] memory) {... */\n    tag_17:\n        /* \"contracts/Lottery/001.sol\":1083:1099  address[] memory */\n      0x60\n        /* \"contracts/Lottery/001.sol\":1119:1126  players */\n      0x01\n        /* \"contracts/Lottery/001.sol\":1112:1126  return players */\n      dup1\n      sload\n      dup1\n      0x20\n      mul\n      0x20\n      add\n      mload(0x40)\n      swap1\n      dup2\n      add\n      0x40\n      mstore\n      dup1\n      swap3\n      swap2\n      swap1\n      dup2\n      dup2\n      mstore\n      0x20\n      add\n      dup3\n      dup1\n      sload\n      dup1\n      iszero\n      tag_58\n      jumpi\n      0x20\n      mul\n      dup3\n      add\n      swap2\n      swap1\n      0x00\n      mstore\n      keccak256(0x00, 0x20)\n      swap1\n    tag_59:\n      dup2\n      0x00\n      swap1\n      sload\n      swap1\n      0x0100\n      exp\n      swap1\n      div\n      0xffffffffffffffffffffffffffffffffffffffff\n      and\n      0xffffffffffffffffffffffffffffffffffffffff\n      and\n      dup2\n      mstore\n      0x20\n      add\n      swap1\n      0x01\n      add\n      swap1\n      dup1\n      dup4\n      gt\n      tag_59\n      jumpi\n    tag_58:\n      pop\n      pop\n      pop\n      pop\n      pop\n      swap1\n      pop\n        /* \"contracts/Lottery/001.sol\":1040:1134  function getPlayers() public view returns (address[] memory) {... */\n      swap1\n      jump\t// out\n        /* \"contracts/Lottery/001.sol\":207:353  function join() public payable {... */\n    tag_21:\n        /* \"contracts/Lottery/001.sol\":270:277  1 ether */\n      0x0de0b6b3a7640000\n        /* \"contracts/Lottery/001.sol\":257:266  msg.value */\n      callvalue\n        /* \"contracts/Lottery/001.sol\":257:277  msg.value >= 1 ether */\n      lt\n      iszero\n        /* \"contracts/Lottery/001.sol\":249:310  require(msg.value >= 1 ether, \"Must send 1 ETH to join game\") */\n      tag_61\n      jumpi\n      mload(0x40)\n      0x08c379a000000000000000000000000000000000000000000000000000000000\n      dup2\n      mstore\n      0x04\n      add\n      tag_62\n      swap1\n      tag_63\n      jump\t// in\n    tag_62:\n      mload(0x40)\n      dup1\n      swap2\n      sub\n      swap1\n      revert\n    tag_61:\n        /* \"contracts/Lottery/001.sol\":321:328  players */\n      0x01\n        /* \"contracts/Lottery/001.sol\":334:344  msg.sender */\n      caller\n        /* \"contracts/Lottery/001.sol\":321:345  players.push(msg.sender) */\n      swap1\n      dup1\n      0x01\n      dup2\n      sload\n      add\n      dup1\n      dup3\n      sstore\n      dup1\n      swap2\n      pop\n      pop\n      0x01\n      swap1\n      sub\n      swap1\n      0x00\n      mstore\n      keccak256(0x00, 0x20)\n      add\n      0x00\n      swap1\n      swap2\n      swap1\n      swap2\n      swap1\n      swap2\n      0x0100\n      exp\n      dup2\n      sload\n      dup2\n      0xffffffffffffffffffffffffffffffffffffffff\n      mul\n      not\n      and\n      swap1\n      dup4\n      0xffffffffffffffffffffffffffffffffffffffff\n      and\n      mul\n      or\n      swap1\n      sstore\n      pop\n        /* \"contracts/Lottery/001.sol\":207:353  function join() public payable {... */\n      jump\t// out\n        /* \"contracts/Lottery/001.sol\":113:137  address[] public players */\n    tag_26:\n      0x01\n      dup2\n      dup2\n      sload\n      dup2\n      lt\n      tag_65\n      jumpi\n      0x00\n      dup1\n      revert\n    tag_65:\n      swap1\n      0x00\n      mstore\n      keccak256(0x00, 0x20)\n      add\n      0x00\n      swap2\n      pop\n      sload\n      swap1\n      0x0100\n      exp\n      swap1\n      div\n      0xffffffffffffffffffffffffffffffffffffffff\n      and\n      dup2\n      jump\t// out\n        /* \"contracts/Lottery/001.sol\":365:523  function random() private view returns (uint) {... */\n    tag_42:\n        /* \"contracts/Lottery/001.sol\":405:409  uint */\n      0x00\n        /* \"contracts/Lottery/001.sol\":484:485  1 */\n      0x01\n        /* \"contracts/Lottery/001.sol\":471:483  block.number */\n      number\n        /* \"contracts/Lottery/001.sol\":471:485  block.number-1 */\n      tag_68\n      swap2\n      swap1\n      tag_38\n      jump\t// in\n    tag_68:\n        /* \"contracts/Lottery/001.sol\":461:486  blockhash(block.number-1) */\n      blockhash\n        /* \"contracts/Lottery/001.sol\":488:503  block.timestamp */\n      timestamp\n        /* \"contracts/Lottery/001.sol\":505:512  players */\n      0x01\n        /* \"contracts/Lottery/001.sol\":444:513  abi.encodePacked(blockhash(block.number-1), block.timestamp, players) */\n      add(0x20, mload(0x40))\n      tag_69\n      swap4\n      swap3\n      swap2\n      swap1\n      tag_70\n      jump\t// in\n    tag_69:\n      mload(0x40)\n      0x20\n      dup2\n      dup4\n      sub\n      sub\n      dup2\n      mstore\n      swap1\n      0x40\n      mstore\n        /* \"contracts/Lottery/001.sol\":434:514  keccak256(abi.encodePacked(blockhash(block.number-1), block.timestamp, players)) */\n      dup1\n      mload\n      swap1\n      0x20\n      add\n      keccak256\n        /* \"contracts/Lottery/001.sol\":429:515  uint(keccak256(abi.encodePacked(blockhash(block.number-1), block.timestamp, players))) */\n      0x00\n      shr\n        /* \"contracts/Lottery/001.sol\":422:515  return uint(keccak256(abi.encodePacked(blockhash(block.number-1), block.timestamp, players))) */\n      swap1\n      pop\n        /* \"contracts/Lottery/001.sol\":365:523  function random() private view returns (uint) {... */\n      swap1\n      jump\t// out\n    tag_56:\n      dup3\n      dup1\n      sload\n      dup3\n      dup3\n      sstore\n      swap1\n      0x00\n      mstore\n      keccak256(0x00, 0x20)\n      swap1\n      dup2\n      add\n      swap3\n      dup3\n      iszero\n      tag_71\n      jumpi\n      swap2\n      0x20\n      mul\n      dup3\n      add\n    tag_72:\n      dup3\n      dup2\n      gt\n      iszero\n      tag_73\n      jumpi\n      dup3\n      mload\n      dup3\n      exp(0x0100, 0x00)\n      dup2\n      sload\n      dup2\n      0xffffffffffffffffffffffffffffffffffffffff\n      mul\n      not\n      and\n      swap1\n      dup4\n      0xffffffffffffffffffffffffffffffffffffffff\n      and\n      mul\n      or\n      swap1\n      sstore\n      pop\n      swap2\n      0x20\n      add\n      swap2\n      swap1\n      0x01\n      add\n      swap1\n      jump(tag_72)\n    tag_73:\n    tag_71:\n      pop\n      swap1\n      pop\n      tag_74\n      swap2\n      swap1\n      tag_75\n      jump\t// in\n    tag_74:\n      pop\n      swap1\n      jump\t// out\n    tag_75:\n    tag_76:\n      dup1\n      dup3\n      gt\n      iszero\n      tag_77\n      jumpi\n      0x00\n      dup2\n      0x00\n      swap1\n      sstore\n      pop\n      0x01\n      add\n      jump(tag_76)\n    tag_77:\n      pop\n      swap1\n      jump\t// out\n        /* \"#utility.yul\":7:133   */\n    tag_78:\n        /* \"#utility.yul\":44:51   */\n      0x00\n        /* \"#utility.yul\":84:126   */\n      0xffffffffffffffffffffffffffffffffffffffff\n        /* \"#utility.yul\":77:82   */\n      dup3\n        /* \"#utility.yul\":73:127   */\n      and\n        /* \"#utility.yul\":62:127   */\n      swap1\n      pop\n        /* \"#utility.yul\":7:133   */\n      swap2\n      swap1\n      pop\n      jump\t// out\n        /* \"#utility.yul\":139:235   */\n    tag_79:\n        /* \"#utility.yul\":176:183   */\n      0x00\n        /* \"#utility.yul\":205:229   */\n      tag_120\n        /* \"#utility.yul\":223:228   */\n      dup3\n        /* \"#utility.yul\":205:229   */\n      tag_78\n      jump\t// in\n    tag_120:\n        /* \"#utility.yul\":194:229   */\n      swap1\n      pop\n        /* \"#utility.yul\":139:235   */\n      swap2\n      swap1\n      pop\n      jump\t// out\n        /* \"#utility.yul\":241:359   */\n    tag_80:\n        /* \"#utility.yul\":328:352   */\n      tag_122\n        /* \"#utility.yul\":346:351   */\n      dup2\n        /* \"#utility.yul\":328:352   */\n      tag_79\n      jump\t// in\n    tag_122:\n        /* \"#utility.yul\":323:326   */\n      dup3\n        /* \"#utility.yul\":316:353   */\n      mstore\n        /* \"#utility.yul\":241:359   */\n      pop\n      pop\n      jump\t// out\n        /* \"#utility.yul\":365:587   */\n    tag_11:\n        /* \"#utility.yul\":458:462   */\n      0x00\n        /* \"#utility.yul\":496:498   */\n      0x20\n        /* \"#utility.yul\":485:494   */\n      dup3\n        /* \"#utility.yul\":481:499   */\n      add\n        /* \"#utility.yul\":473:499   */\n      swap1\n      pop\n        /* \"#utility.yul\":509:580   */\n      tag_124\n        /* \"#utility.yul\":577:578   */\n      0x00\n        /* \"#utility.yul\":566:575   */\n      dup4\n        /* \"#utility.yul\":562:579   */\n      add\n        /* \"#utility.yul\":553:559   */\n      dup5\n        /* \"#utility.yul\":509:580   */\n      tag_80\n      jump\t// in\n    tag_124:\n        /* \"#utility.yul\":365:587   */\n      swap3\n      swap2\n      pop\n      pop\n      jump\t// out\n        /* \"#utility.yul\":593:707   */\n    tag_81:\n        /* \"#utility.yul\":660:666   */\n      0x00\n        /* \"#utility.yul\":694:699   */\n      dup2\n        /* \"#utility.yul\":688:700   */\n      mload\n        /* \"#utility.yul\":678:700   */\n      swap1\n      pop\n        /* \"#utility.yul\":593:707   */\n      swap2\n      swap1\n      pop\n      jump\t// out\n        /* \"#utility.yul\":713:897   */\n    tag_82:\n        /* \"#utility.yul\":812:823   */\n      0x00\n        /* \"#utility.yul\":846:852   */\n      dup3\n        /* \"#utility.yul\":841:844   */\n      dup3\n        /* \"#utility.yul\":834:853   */\n      mstore\n        /* \"#utility.yul\":886:890   */\n      0x20\n        /* \"#utility.yul\":881:884   */\n      dup3\n        /* \"#utility.yul\":877:891   */\n      add\n        /* \"#utility.yul\":862:891   */\n      swap1\n      pop\n        /* \"#utility.yul\":713:897   */\n      swap3\n      swap2\n      pop\n      pop\n      jump\t// out\n        /* \"#utility.yul\":903:1035   */\n    tag_83:\n        /* \"#utility.yul\":970:974   */\n      0x00\n        /* \"#utility.yul\":993:996   */\n      dup2\n        /* \"#utility.yul\":985:996   */\n      swap1\n      pop\n        /* \"#utility.yul\":1023:1027   */\n      0x20\n        /* \"#utility.yul\":1018:1021   */\n      dup3\n        /* \"#utility.yul\":1014:1028   */\n      add\n        /* \"#utility.yul\":1006:1028   */\n      swap1\n      pop\n        /* \"#utility.yul\":903:1035   */\n      swap2\n      swap1\n      pop\n      jump\t// out\n        /* \"#utility.yul\":1041:1149   */\n    tag_84:\n        /* \"#utility.yul\":1118:1142   */\n      tag_129\n        /* \"#utility.yul\":1136:1141   */\n      dup2\n        /* \"#utility.yul\":1118:1142   */\n      tag_79\n      jump\t// in\n    tag_129:\n        /* \"#utility.yul\":1113:1116   */\n      dup3\n        /* \"#utility.yul\":1106:1143   */\n      mstore\n        /* \"#utility.yul\":1041:1149   */\n      pop\n      pop\n      jump\t// out\n        /* \"#utility.yul\":1155:1334   */\n    tag_85:\n        /* \"#utility.yul\":1224:1234   */\n      0x00\n        /* \"#utility.yul\":1245:1291   */\n      tag_131\n        /* \"#utility.yul\":1287:1290   */\n      dup4\n        /* \"#utility.yul\":1279:1285   */\n      dup4\n        /* \"#utility.yul\":1245:1291   */\n      tag_84\n      jump\t// in\n    tag_131:\n        /* \"#utility.yul\":1323:1327   */\n      0x20\n        /* \"#utility.yul\":1318:1321   */\n      dup4\n        /* \"#utility.yul\":1314:1328   */\n      add\n        /* \"#utility.yul\":1300:1328   */\n      swap1\n      pop\n        /* \"#utility.yul\":1155:1334   */\n      swap3\n      swap2\n      pop\n      pop\n      jump\t// out\n        /* \"#utility.yul\":1340:1453   */\n    tag_86:\n        /* \"#utility.yul\":1410:1414   */\n      0x00\n        /* \"#utility.yul\":1442:1446   */\n      0x20\n        /* \"#utility.yul\":1437:1440   */\n      dup3\n        /* \"#utility.yul\":1433:1447   */\n      add\n        /* \"#utility.yul\":1425:1447   */\n      swap1\n      pop\n        /* \"#utility.yul\":1340:1453   */\n      swap2\n      swap1\n      pop\n      jump\t// out\n        /* \"#utility.yul\":1489:2221   */\n    tag_87:\n        /* \"#utility.yul\":1608:1611   */\n      0x00\n        /* \"#utility.yul\":1637:1691   */\n      tag_134\n        /* \"#utility.yul\":1685:1690   */\n      dup3\n        /* \"#utility.yul\":1637:1691   */\n      tag_81\n      jump\t// in\n    tag_134:\n        /* \"#utility.yul\":1707:1793   */\n      tag_135\n        /* \"#utility.yul\":1786:1792   */\n      dup2\n        /* \"#utility.yul\":1781:1784   */\n      dup6\n        /* \"#utility.yul\":1707:1793   */\n      tag_82\n      jump\t// in\n    tag_135:\n        /* \"#utility.yul\":1700:1793   */\n      swap4\n      pop\n        /* \"#utility.yul\":1817:1873   */\n      tag_136\n        /* \"#utility.yul\":1867:1872   */\n      dup4\n        /* \"#utility.yul\":1817:1873   */\n      tag_83\n      jump\t// in\n    tag_136:\n        /* \"#utility.yul\":1896:1903   */\n      dup1\n        /* \"#utility.yul\":1927:1928   */\n      0x00\n        /* \"#utility.yul\":1912:2196   */\n    tag_137:\n        /* \"#utility.yul\":1937:1943   */\n      dup4\n        /* \"#utility.yul\":1934:1935   */\n      dup2\n        /* \"#utility.yul\":1931:1944   */\n      lt\n        /* \"#utility.yul\":1912:2196   */\n      iszero\n      tag_139\n      jumpi\n        /* \"#utility.yul\":2013:2019   */\n      dup2\n        /* \"#utility.yul\":2007:2020   */\n      mload\n        /* \"#utility.yul\":2040:2103   */\n      tag_140\n        /* \"#utility.yul\":2099:2102   */\n      dup9\n        /* \"#utility.yul\":2084:2097   */\n      dup3\n        /* \"#utility.yul\":2040:2103   */\n      tag_85\n      jump\t// in\n    tag_140:\n        /* \"#utility.yul\":2033:2103   */\n      swap8\n      pop\n        /* \"#utility.yul\":2126:2186   */\n      tag_141\n        /* \"#utility.yul\":2179:2185   */\n      dup4\n        /* \"#utility.yul\":2126:2186   */\n      tag_86\n      jump\t// in\n    tag_141:\n        /* \"#utility.yul\":2116:2186   */\n      swap3\n      pop\n        /* \"#utility.yul\":1972:2196   */\n      pop\n        /* \"#utility.yul\":1959:1960   */\n      0x01\n        /* \"#utility.yul\":1956:1957   */\n      dup2\n        /* \"#utility.yul\":1952:1961   */\n      add\n        /* \"#utility.yul\":1947:1961   */\n      swap1\n      pop\n        /* \"#utility.yul\":1912:2196   */\n      jump(tag_137)\n    tag_139:\n        /* \"#utility.yul\":1916:1930   */\n      pop\n        /* \"#utility.yul\":2212:2215   */\n      dup6\n        /* \"#utility.yul\":2205:2215   */\n      swap4\n      pop\n        /* \"#utility.yul\":1613:2221   */\n      pop\n      pop\n      pop\n        /* \"#utility.yul\":1489:2221   */\n      swap3\n      swap2\n      pop\n      pop\n      jump\t// out\n        /* \"#utility.yul\":2227:2600   */\n    tag_19:\n        /* \"#utility.yul\":2370:2374   */\n      0x00\n        /* \"#utility.yul\":2408:2410   */\n      0x20\n        /* \"#utility.yul\":2397:2406   */\n      dup3\n        /* \"#utility.yul\":2393:2411   */\n      add\n        /* \"#utility.yul\":2385:2411   */\n      swap1\n      pop\n        /* \"#utility.yul\":2457:2466   */\n      dup2\n        /* \"#utility.yul\":2451:2455   */\n      dup2\n        /* \"#utility.yul\":2447:2467   */\n      sub\n        /* \"#utility.yul\":2443:2444   */\n      0x00\n        /* \"#utility.yul\":2432:2441   */\n      dup4\n        /* \"#utility.yul\":2428:2445   */\n      add\n        /* \"#utility.yul\":2421:2468   */\n      mstore\n        /* \"#utility.yul\":2485:2593   */\n      tag_143\n        /* \"#utility.yul\":2588:2592   */\n      dup2\n        /* \"#utility.yul\":2579:2585   */\n      dup5\n        /* \"#utility.yul\":2485:2593   */\n      tag_87\n      jump\t// in\n    tag_143:\n        /* \"#utility.yul\":2477:2593   */\n      swap1\n      pop\n        /* \"#utility.yul\":2227:2600   */\n      swap3\n      swap2\n      pop\n      pop\n      jump\t// out\n        /* \"#utility.yul\":2687:2804   */\n    tag_89:\n        /* \"#utility.yul\":2796:2797   */\n      0x00\n        /* \"#utility.yul\":2793:2794   */\n      dup1\n        /* \"#utility.yul\":2786:2798   */\n      revert\n        /* \"#utility.yul\":2933:3010   */\n    tag_91:\n        /* \"#utility.yul\":2970:2977   */\n      0x00\n        /* \"#utility.yul\":2999:3004   */\n      dup2\n        /* \"#utility.yul\":2988:3004   */\n      swap1\n      pop\n        /* \"#utility.yul\":2933:3010   */\n      swap2\n      swap1\n      pop\n      jump\t// out\n        /* \"#utility.yul\":3016:3138   */\n    tag_92:\n        /* \"#utility.yul\":3089:3113   */\n      tag_149\n        /* \"#utility.yul\":3107:3112   */\n      dup2\n        /* \"#utility.yul\":3089:3113   */\n      tag_91\n      jump\t// in\n    tag_149:\n        /* \"#utility.yul\":3082:3087   */\n      dup2\n        /* \"#utility.yul\":3079:3114   */\n      eq\n        /* \"#utility.yul\":3069:3132   */\n      tag_150\n      jumpi\n        /* \"#utility.yul\":3128:3129   */\n      0x00\n        /* \"#utility.yul\":3125:3126   */\n      dup1\n        /* \"#utility.yul\":3118:3130   */\n      revert\n        /* \"#utility.yul\":3069:3132   */\n    tag_150:\n        /* \"#utility.yul\":3016:3138   */\n      pop\n      jump\t// out\n        /* \"#utility.yul\":3144:3283   */\n    tag_93:\n        /* \"#utility.yul\":3190:3195   */\n      0x00\n        /* \"#utility.yul\":3228:3234   */\n      dup2\n        /* \"#utility.yul\":3215:3235   */\n      calldataload\n        /* \"#utility.yul\":3206:3235   */\n      swap1\n      pop\n        /* \"#utility.yul\":3244:3277   */\n      tag_152\n        /* \"#utility.yul\":3271:3276   */\n      dup2\n        /* \"#utility.yul\":3244:3277   */\n      tag_92\n      jump\t// in\n    tag_152:\n        /* \"#utility.yul\":3144:3283   */\n      swap3\n      swap2\n      pop\n      pop\n      jump\t// out\n        /* \"#utility.yul\":3289:3618   */\n    tag_25:\n        /* \"#utility.yul\":3348:3354   */\n      0x00\n        /* \"#utility.yul\":3397:3399   */\n      0x20\n        /* \"#utility.yul\":3385:3394   */\n      dup3\n        /* \"#utility.yul\":3376:3383   */\n      dup5\n        /* \"#utility.yul\":3372:3395   */\n      sub\n        /* \"#utility.yul\":3368:3400   */\n      slt\n        /* \"#utility.yul\":3365:3484   */\n      iszero\n      tag_154\n      jumpi\n        /* \"#utility.yul\":3403:3482   */\n      tag_155\n      tag_89\n      jump\t// in\n    tag_155:\n        /* \"#utility.yul\":3365:3484   */\n    tag_154:\n        /* \"#utility.yul\":3523:3524   */\n      0x00\n        /* \"#utility.yul\":3548:3601   */\n      tag_156\n        /* \"#utility.yul\":3593:3600   */\n      dup5\n        /* \"#utility.yul\":3584:3590   */\n      dup3\n        /* \"#utility.yul\":3573:3582   */\n      dup6\n        /* \"#utility.yul\":3569:3591   */\n      add\n        /* \"#utility.yul\":3548:3601   */\n      tag_93\n      jump\t// in\n    tag_156:\n        /* \"#utility.yul\":3538:3601   */\n      swap2\n      pop\n        /* \"#utility.yul\":3494:3611   */\n      pop\n        /* \"#utility.yul\":3289:3618   */\n      swap3\n      swap2\n      pop\n      pop\n      jump\t// out\n        /* \"#utility.yul\":3624:3793   */\n    tag_94:\n        /* \"#utility.yul\":3708:3719   */\n      0x00\n        /* \"#utility.yul\":3742:3748   */\n      dup3\n        /* \"#utility.yul\":3737:3740   */\n      dup3\n        /* \"#utility.yul\":3730:3749   */\n      mstore\n        /* \"#utility.yul\":3782:3786   */\n      0x20\n        /* \"#utility.yul\":3777:3780   */\n      dup3\n        /* \"#utility.yul\":3773:3787   */\n      add\n        /* \"#utility.yul\":3758:3787   */\n      swap1\n      pop\n        /* \"#utility.yul\":3624:3793   */\n      swap3\n      swap2\n      pop\n      pop\n      jump\t// out\n        /* \"#utility.yul\":3799:4033   */\n    tag_95:\n        /* \"#utility.yul\":3939:3973   */\n      0x546869732066756e6374696f6e2063616e206f6e6c792062652063616c6c6564\n        /* \"#utility.yul\":3935:3936   */\n      0x00\n        /* \"#utility.yul\":3927:3933   */\n      dup3\n        /* \"#utility.yul\":3923:3937   */\n      add\n        /* \"#utility.yul\":3916:3974   */\n      mstore\n        /* \"#utility.yul\":4008:4025   */\n      0x20627920746865206d616e616765720000000000000000000000000000000000\n        /* \"#utility.yul\":4003:4005   */\n      0x20\n        /* \"#utility.yul\":3995:4001   */\n      dup3\n        /* \"#utility.yul\":3991:4006   */\n      add\n        /* \"#utility.yul\":3984:4026   */\n      mstore\n        /* \"#utility.yul\":3799:4033   */\n      pop\n      jump\t// out\n        /* \"#utility.yul\":4039:4405   */\n    tag_96:\n        /* \"#utility.yul\":4181:4184   */\n      0x00\n        /* \"#utility.yul\":4202:4269   */\n      tag_160\n        /* \"#utility.yul\":4266:4268   */\n      0x2f\n        /* \"#utility.yul\":4261:4264   */\n      dup4\n        /* \"#utility.yul\":4202:4269   */\n      tag_94\n      jump\t// in\n    tag_160:\n        /* \"#utility.yul\":4195:4269   */\n      swap2\n      pop\n        /* \"#utility.yul\":4278:4371   */\n      tag_161\n        /* \"#utility.yul\":4367:4370   */\n      dup3\n        /* \"#utility.yul\":4278:4371   */\n      tag_95\n      jump\t// in\n    tag_161:\n        /* \"#utility.yul\":4396:4398   */\n      0x40\n        /* \"#utility.yul\":4391:4394   */\n      dup3\n        /* \"#utility.yul\":4387:4399   */\n      add\n        /* \"#utility.yul\":4380:4399   */\n      swap1\n      pop\n        /* \"#utility.yul\":4039:4405   */\n      swap2\n      swap1\n      pop\n      jump\t// out\n        /* \"#utility.yul\":4411:4830   */\n    tag_31:\n        /* \"#utility.yul\":4577:4581   */\n      0x00\n        /* \"#utility.yul\":4615:4617   */\n      0x20\n        /* \"#utility.yul\":4604:4613   */\n      dup3\n        /* \"#utility.yul\":4600:4618   */\n      add\n        /* \"#utility.yul\":4592:4618   */\n      swap1\n      pop\n        /* \"#utility.yul\":4664:4673   */\n      dup2\n        /* \"#utility.yul\":4658:4662   */\n      dup2\n        /* \"#utility.yul\":4654:4674   */\n      sub\n        /* \"#utility.yul\":4650:4651   */\n      0x00\n        /* \"#utility.yul\":4639:4648   */\n      dup4\n        /* \"#utility.yul\":4635:4652   */\n      add\n        /* \"#utility.yul\":4628:4675   */\n      mstore\n        /* \"#utility.yul\":4692:4823   */\n      tag_163\n        /* \"#utility.yul\":4818:4822   */\n      dup2\n        /* \"#utility.yul\":4692:4823   */\n      tag_96\n      jump\t// in\n    tag_163:\n        /* \"#utility.yul\":4684:4823   */\n      swap1\n      pop\n        /* \"#utility.yul\":4411:4830   */\n      swap2\n      swap1\n      pop\n      jump\t// out\n        /* \"#utility.yul\":4836:5016   */\n    tag_97:\n        /* \"#utility.yul\":4884:4961   */\n      0x4e487b7100000000000000000000000000000000000000000000000000000000\n        /* \"#utility.yul\":4881:4882   */\n      0x00\n        /* \"#utility.yul\":4874:4962   */\n      mstore\n        /* \"#utility.yul\":4981:4985   */\n      0x11\n        /* \"#utility.yul\":4978:4979   */\n      0x04\n        /* \"#utility.yul\":4971:4986   */\n      mstore\n        /* \"#utility.yul\":5005:5009   */\n      0x24\n        /* \"#utility.yul\":5002:5003   */\n      0x00\n        /* \"#utility.yul\":4995:5010   */\n      revert\n        /* \"#utility.yul\":5022:5432   */\n    tag_34:\n        /* \"#utility.yul\":5062:5069   */\n      0x00\n        /* \"#utility.yul\":5085:5105   */\n      tag_166\n        /* \"#utility.yul\":5103:5104   */\n      dup3\n        /* \"#utility.yul\":5085:5105   */\n      tag_91\n      jump\t// in\n    tag_166:\n        /* \"#utility.yul\":5080:5105   */\n      swap2\n      pop\n        /* \"#utility.yul\":5119:5139   */\n      tag_167\n        /* \"#utility.yul\":5137:5138   */\n      dup4\n        /* \"#utility.yul\":5119:5139   */\n      tag_91\n      jump\t// in\n    tag_167:\n        /* \"#utility.yul\":5114:5139   */\n      swap3\n      pop\n        /* \"#utility.yul\":5174:5175   */\n      dup3\n        /* \"#utility.yul\":5171:5172   */\n      dup3\n        /* \"#utility.yul\":5167:5176   */\n      mul\n        /* \"#utility.yul\":5196:5226   */\n      tag_168\n        /* \"#utility.yul\":5214:5225   */\n      dup2\n        /* \"#utility.yul\":5196:5226   */\n      tag_91\n      jump\t// in\n    tag_168:\n        /* \"#utility.yul\":5185:5226   */\n      swap2\n      pop\n        /* \"#utility.yul\":5375:5376   */\n      dup3\n        /* \"#utility.yul\":5366:5373   */\n      dup3\n        /* \"#utility.yul\":5362:5377   */\n      div\n        /* \"#utility.yul\":5359:5360   */\n      dup5\n        /* \"#utility.yul\":5356:5378   */\n      eq\n        /* \"#utility.yul\":5336:5337   */\n      dup4\n        /* \"#utility.yul\":5329:5338   */\n      iszero\n        /* \"#utility.yul\":5309:5392   */\n      or\n        /* \"#utility.yul\":5286:5425   */\n      tag_169\n      jumpi\n        /* \"#utility.yul\":5405:5423   */\n      tag_170\n      tag_97\n      jump\t// in\n    tag_170:\n        /* \"#utility.yul\":5286:5425   */\n    tag_169:\n        /* \"#utility.yul\":5070:5432   */\n      pop\n        /* \"#utility.yul\":5022:5432   */\n      swap3\n      swap2\n      pop\n      pop\n      jump\t// out\n        /* \"#utility.yul\":5438:5618   */\n    tag_98:\n        /* \"#utility.yul\":5486:5563   */\n      0x4e487b7100000000000000000000000000000000000000000000000000000000\n        /* \"#utility.yul\":5483:5484   */\n      0x00\n        /* \"#utility.yul\":5476:5564   */\n      mstore\n        /* \"#utility.yul\":5583:5587   */\n      0x12\n        /* \"#utility.yul\":5580:5581   */\n      0x04\n        /* \"#utility.yul\":5573:5588   */\n      mstore\n        /* \"#utility.yul\":5607:5611   */\n      0x24\n        /* \"#utility.yul\":5604:5605   */\n      0x00\n        /* \"#utility.yul\":5597:5612   */\n      revert\n        /* \"#utility.yul\":5624:5809   */\n    tag_36:\n        /* \"#utility.yul\":5664:5665   */\n      0x00\n        /* \"#utility.yul\":5681:5701   */\n      tag_173\n        /* \"#utility.yul\":5699:5700   */\n      dup3\n        /* \"#utility.yul\":5681:5701   */\n      tag_91\n      jump\t// in\n    tag_173:\n        /* \"#utility.yul\":5676:5701   */\n      swap2\n      pop\n        /* \"#utility.yul\":5715:5735   */\n      tag_174\n        /* \"#utility.yul\":5733:5734   */\n      dup4\n        /* \"#utility.yul\":5715:5735   */\n      tag_91\n      jump\t// in\n    tag_174:\n        /* \"#utility.yul\":5710:5735   */\n      swap3\n      pop\n        /* \"#utility.yul\":5754:5755   */\n      dup3\n        /* \"#utility.yul\":5744:5779   */\n      tag_175\n      jumpi\n        /* \"#utility.yul\":5759:5777   */\n      tag_176\n      tag_98\n      jump\t// in\n    tag_176:\n        /* \"#utility.yul\":5744:5779   */\n    tag_175:\n        /* \"#utility.yul\":5801:5802   */\n      dup3\n        /* \"#utility.yul\":5798:5799   */\n      dup3\n        /* \"#utility.yul\":5794:5803   */\n      div\n        /* \"#utility.yul\":5789:5803   */\n      swap1\n      pop\n        /* \"#utility.yul\":5624:5809   */\n      swap3\n      swap2\n      pop\n      pop\n      jump\t// out\n        /* \"#utility.yul\":5815:6009   */\n    tag_38:\n        /* \"#utility.yul\":5855:5859   */\n      0x00\n        /* \"#utility.yul\":5875:5895   */\n      tag_178\n        /* \"#utility.yul\":5893:5894   */\n      dup3\n        /* \"#utility.yul\":5875:5895   */\n      tag_91\n      jump\t// in\n    tag_178:\n        /* \"#utility.yul\":5870:5895   */\n      swap2\n      pop\n        /* \"#utility.yul\":5909:5929   */\n      tag_179\n        /* \"#utility.yul\":5927:5928   */\n      dup4\n        /* \"#utility.yul\":5909:5929   */\n      tag_91\n      jump\t// in\n    tag_179:\n        /* \"#utility.yul\":5904:5929   */\n      swap3\n      pop\n        /* \"#utility.yul\":5953:5954   */\n      dup3\n        /* \"#utility.yul\":5950:5951   */\n      dup3\n        /* \"#utility.yul\":5946:5955   */\n      sub\n        /* \"#utility.yul\":5938:5955   */\n      swap1\n      pop\n        /* \"#utility.yul\":5977:5978   */\n      dup2\n        /* \"#utility.yul\":5971:5975   */\n      dup2\n        /* \"#utility.yul\":5968:5979   */\n      gt\n        /* \"#utility.yul\":5965:6002   */\n      iszero\n      tag_180\n      jumpi\n        /* \"#utility.yul\":5982:6000   */\n      tag_181\n      tag_97\n      jump\t// in\n    tag_181:\n        /* \"#utility.yul\":5965:6002   */\n    tag_180:\n        /* \"#utility.yul\":5815:6009   */\n      swap3\n      swap2\n      pop\n      pop\n      jump\t// out\n        /* \"#utility.yul\":6015:6191   */\n    tag_44:\n        /* \"#utility.yul\":6047:6048   */\n      0x00\n        /* \"#utility.yul\":6064:6084   */\n      tag_183\n        /* \"#utility.yul\":6082:6083   */\n      dup3\n        /* \"#utility.yul\":6064:6084   */\n      tag_91\n      jump\t// in\n    tag_183:\n        /* \"#utility.yul\":6059:6084   */\n      swap2\n      pop\n        /* \"#utility.yul\":6098:6118   */\n      tag_184\n        /* \"#utility.yul\":6116:6117   */\n      dup4\n        /* \"#utility.yul\":6098:6118   */\n      tag_91\n      jump\t// in\n    tag_184:\n        /* \"#utility.yul\":6093:6118   */\n      swap3\n      pop\n        /* \"#utility.yul\":6137:6138   */\n      dup3\n        /* \"#utility.yul\":6127:6162   */\n      tag_185\n      jumpi\n        /* \"#utility.yul\":6142:6160   */\n      tag_186\n      tag_98\n      jump\t// in\n    tag_186:\n        /* \"#utility.yul\":6127:6162   */\n    tag_185:\n        /* \"#utility.yul\":6183:6184   */\n      dup3\n        /* \"#utility.yul\":6180:6181   */\n      dup3\n        /* \"#utility.yul\":6176:6185   */\n      mod\n        /* \"#utility.yul\":6171:6185   */\n      swap1\n      pop\n        /* \"#utility.yul\":6015:6191   */\n      swap3\n      swap2\n      pop\n      pop\n      jump\t// out\n        /* \"#utility.yul\":6197:6377   */\n    tag_47:\n        /* \"#utility.yul\":6245:6322   */\n      0x4e487b7100000000000000000000000000000000000000000000000000000000\n        /* \"#utility.yul\":6242:6243   */\n      0x00\n        /* \"#utility.yul\":6235:6323   */\n      mstore\n        /* \"#utility.yul\":6342:6346   */\n      0x32\n        /* \"#utility.yul\":6339:6340   */\n      0x04\n        /* \"#utility.yul\":6332:6347   */\n      mstore\n        /* \"#utility.yul\":6366:6370   */\n      0x24\n        /* \"#utility.yul\":6363:6364   */\n      0x00\n        /* \"#utility.yul\":6356:6371   */\n      revert\n        /* \"#utility.yul\":6383:6563   */\n    tag_53:\n        /* \"#utility.yul\":6431:6508   */\n      0x4e487b7100000000000000000000000000000000000000000000000000000000\n        /* \"#utility.yul\":6428:6429   */\n      0x00\n        /* \"#utility.yul\":6421:6509   */\n      mstore\n        /* \"#utility.yul\":6528:6532   */\n      0x41\n        /* \"#utility.yul\":6525:6526   */\n      0x04\n        /* \"#utility.yul\":6518:6533   */\n      mstore\n        /* \"#utility.yul\":6552:6556   */\n      0x24\n        /* \"#utility.yul\":6549:6550   */\n      0x00\n        /* \"#utility.yul\":6542:6557   */\n      revert\n        /* \"#utility.yul\":6569:6747   */\n    tag_99:\n        /* \"#utility.yul\":6709:6739   */\n      0x4d7573742073656e6420312045544820746f206a6f696e2067616d6500000000\n        /* \"#utility.yul\":6705:6706   */\n      0x00\n        /* \"#utility.yul\":6697:6703   */\n      dup3\n        /* \"#utility.yul\":6693:6707   */\n      add\n        /* \"#utility.yul\":6686:6740   */\n      mstore\n        /* \"#utility.yul\":6569:6747   */\n      pop\n      jump\t// out\n        /* \"#utility.yul\":6753:7119   */\n    tag_100:\n        /* \"#utility.yul\":6895:6898   */\n      0x00\n        /* \"#utility.yul\":6916:6983   */\n      tag_191\n        /* \"#utility.yul\":6980:6982   */\n      0x1c\n        /* \"#utility.yul\":6975:6978   */\n      dup4\n        /* \"#utility.yul\":6916:6983   */\n      tag_94\n      jump\t// in\n    tag_191:\n        /* \"#utility.yul\":6909:6983   */\n      swap2\n      pop\n        /* \"#utility.yul\":6992:7085   */\n      tag_192\n        /* \"#utility.yul\":7081:7084   */\n      dup3\n        /* \"#utility.yul\":6992:7085   */\n      tag_99\n      jump\t// in\n    tag_192:\n        /* \"#utility.yul\":7110:7112   */\n      0x20\n        /* \"#utility.yul\":7105:7108   */\n      dup3\n        /* \"#utility.yul\":7101:7113   */\n      add\n        /* \"#utility.yul\":7094:7113   */\n      swap1\n      pop\n        /* \"#utility.yul\":6753:7119   */\n      swap2\n      swap1\n      pop\n      jump\t// out\n        /* \"#utility.yul\":7125:7544   */\n    tag_63:\n        /* \"#utility.yul\":7291:7295   */\n      0x00\n        /* \"#utility.yul\":7329:7331   */\n      0x20\n        /* \"#utility.yul\":7318:7327   */\n      dup3\n        /* \"#utility.yul\":7314:7332   */\n      add\n        /* \"#utility.yul\":7306:7332   */\n      swap1\n      pop\n        /* \"#utility.yul\":7378:7387   */\n      dup2\n        /* \"#utility.yul\":7372:7376   */\n      dup2\n        /* \"#utility.yul\":7368:7388   */\n      sub\n        /* \"#utility.yul\":7364:7365   */\n      0x00\n        /* \"#utility.yul\":7353:7362   */\n      dup4\n        /* \"#utility.yul\":7349:7366   */\n      add\n        /* \"#utility.yul\":7342:7389   */\n      mstore\n        /* \"#utility.yul\":7406:7537   */\n      tag_194\n        /* \"#utility.yul\":7532:7536   */\n      dup2\n        /* \"#utility.yul\":7406:7537   */\n      tag_100\n      jump\t// in\n    tag_194:\n        /* \"#utility.yul\":7398:7537   */\n      swap1\n      pop\n        /* \"#utility.yul\":7125:7544   */\n      swap2\n      swap1\n      pop\n      jump\t// out\n        /* \"#utility.yul\":7550:7627   */\n    tag_101:\n        /* \"#utility.yul\":7587:7594   */\n      0x00\n        /* \"#utility.yul\":7616:7621   */\n      dup2\n        /* \"#utility.yul\":7605:7621   */\n      swap1\n      pop\n        /* \"#utility.yul\":7550:7627   */\n      swap2\n      swap1\n      pop\n      jump\t// out\n        /* \"#utility.yul\":7633:7712   */\n    tag_102:\n        /* \"#utility.yul\":7672:7679   */\n      0x00\n        /* \"#utility.yul\":7701:7706   */\n      dup2\n        /* \"#utility.yul\":7690:7706   */\n      swap1\n      pop\n        /* \"#utility.yul\":7633:7712   */\n      swap2\n      swap1\n      pop\n      jump\t// out\n        /* \"#utility.yul\":7718:7875   */\n    tag_103:\n        /* \"#utility.yul\":7823:7868   */\n      tag_198\n        /* \"#utility.yul\":7843:7867   */\n      tag_199\n        /* \"#utility.yul\":7861:7866   */\n      dup3\n        /* \"#utility.yul\":7843:7867   */\n      tag_101\n      jump\t// in\n    tag_199:\n        /* \"#utility.yul\":7823:7868   */\n      tag_102\n      jump\t// in\n    tag_198:\n        /* \"#utility.yul\":7818:7821   */\n      dup3\n        /* \"#utility.yul\":7811:7869   */\n      mstore\n        /* \"#utility.yul\":7718:7875   */\n      pop\n      pop\n      jump\t// out\n        /* \"#utility.yul\":7881:7960   */\n    tag_104:\n        /* \"#utility.yul\":7920:7927   */\n      0x00\n        /* \"#utility.yul\":7949:7954   */\n      dup2\n        /* \"#utility.yul\":7938:7954   */\n      swap1\n      pop\n        /* \"#utility.yul\":7881:7960   */\n      swap2\n      swap1\n      pop\n      jump\t// out\n        /* \"#utility.yul\":7966:8123   */\n    tag_105:\n        /* \"#utility.yul\":8071:8116   */\n      tag_202\n        /* \"#utility.yul\":8091:8115   */\n      tag_203\n        /* \"#utility.yul\":8109:8114   */\n      dup3\n        /* \"#utility.yul\":8091:8115   */\n      tag_91\n      jump\t// in\n    tag_203:\n        /* \"#utility.yul\":8071:8116   */\n      tag_104\n      jump\t// in\n    tag_202:\n        /* \"#utility.yul\":8066:8069   */\n      dup3\n        /* \"#utility.yul\":8059:8117   */\n      mstore\n        /* \"#utility.yul\":7966:8123   */\n      pop\n      pop\n      jump\t// out\n        /* \"#utility.yul\":8129:8240   */\n    tag_106:\n        /* \"#utility.yul\":8193:8199   */\n      0x00\n        /* \"#utility.yul\":8227:8232   */\n      dup2\n        /* \"#utility.yul\":8221:8233   */\n      sload\n        /* \"#utility.yul\":8211:8233   */\n      swap1\n      pop\n        /* \"#utility.yul\":8129:8240   */\n      swap2\n      swap1\n      pop\n      jump\t// out\n        /* \"#utility.yul\":8246:8409   */\n    tag_107:\n        /* \"#utility.yul\":8363:8374   */\n      0x00\n        /* \"#utility.yul\":8400:8403   */\n      dup2\n        /* \"#utility.yul\":8385:8403   */\n      swap1\n      pop\n        /* \"#utility.yul\":8246:8409   */\n      swap3\n      swap2\n      pop\n      pop\n      jump\t// out\n        /* \"#utility.yul\":8415:8571   */\n    tag_108:\n        /* \"#utility.yul\":8479:8483   */\n      0x00\n        /* \"#utility.yul\":8502:8505   */\n      dup2\n        /* \"#utility.yul\":8494:8505   */\n      swap1\n      pop\n        /* \"#utility.yul\":8525:8528   */\n      dup2\n        /* \"#utility.yul\":8522:8523   */\n      0x00\n        /* \"#utility.yul\":8515:8529   */\n      mstore\n        /* \"#utility.yul\":8559:8563   */\n      0x20\n        /* \"#utility.yul\":8556:8557   */\n      0x00\n        /* \"#utility.yul\":8546:8564   */\n      keccak256\n        /* \"#utility.yul\":8538:8564   */\n      swap1\n      pop\n        /* \"#utility.yul\":8415:8571   */\n      swap2\n      swap1\n      pop\n      jump\t// out\n        /* \"#utility.yul\":8577:8693   */\n    tag_109:\n        /* \"#utility.yul\":8662:8686   */\n      tag_208\n        /* \"#utility.yul\":8680:8685   */\n      dup2\n        /* \"#utility.yul\":8662:8686   */\n      tag_79\n      jump\t// in\n    tag_208:\n        /* \"#utility.yul\":8657:8660   */\n      dup3\n        /* \"#utility.yul\":8650:8687   */\n      mstore\n        /* \"#utility.yul\":8577:8693   */\n      pop\n      pop\n      jump\t// out\n        /* \"#utility.yul\":8699:8894   */\n    tag_110:\n        /* \"#utility.yul\":8776:8786   */\n      0x00\n        /* \"#utility.yul\":8797:8851   */\n      tag_210\n        /* \"#utility.yul\":8847:8850   */\n      dup4\n        /* \"#utility.yul\":8839:8845   */\n      dup4\n        /* \"#utility.yul\":8797:8851   */\n      tag_109\n      jump\t// in\n    tag_210:\n        /* \"#utility.yul\":8883:8887   */\n      0x20\n        /* \"#utility.yul\":8878:8881   */\n      dup4\n        /* \"#utility.yul\":8874:8888   */\n      add\n        /* \"#utility.yul\":8860:8888   */\n      swap1\n      pop\n        /* \"#utility.yul\":8699:8894   */\n      swap3\n      swap2\n      pop\n      pop\n      jump\t// out\n        /* \"#utility.yul\":8900:9002   */\n    tag_111:\n        /* \"#utility.yul\":8942:8950   */\n      0x00\n        /* \"#utility.yul\":8989:8994   */\n      dup2\n        /* \"#utility.yul\":8986:8987   */\n      0x00\n        /* \"#utility.yul\":8982:8995   */\n      shr\n        /* \"#utility.yul\":8961:8995   */\n      swap1\n      pop\n        /* \"#utility.yul\":8900:9002   */\n      swap2\n      swap1\n      pop\n      jump\t// out\n        /* \"#utility.yul\":9008:9147   */\n    tag_112:\n        /* \"#utility.yul\":9058:9065   */\n      0x00\n        /* \"#utility.yul\":9098:9140   */\n      0xffffffffffffffffffffffffffffffffffffffff\n        /* \"#utility.yul\":9091:9096   */\n      dup3\n        /* \"#utility.yul\":9087:9141   */\n      and\n        /* \"#utility.yul\":9076:9141   */\n      swap1\n      pop\n        /* \"#utility.yul\":9008:9147   */\n      swap2\n      swap1\n      pop\n      jump\t// out\n        /* \"#utility.yul\":9153:9319   */\n    tag_113:\n        /* \"#utility.yul\":9222:9227   */\n      0x00\n        /* \"#utility.yul\":9247:9313   */\n      tag_214\n        /* \"#utility.yul\":9278:9312   */\n      tag_215\n        /* \"#utility.yul\":9301:9311   */\n      dup4\n        /* \"#utility.yul\":9278:9312   */\n      tag_111\n      jump\t// in\n    tag_215:\n        /* \"#utility.yul\":9247:9313   */\n      tag_112\n      jump\t// in\n    tag_214:\n        /* \"#utility.yul\":9238:9313   */\n      swap1\n      pop\n        /* \"#utility.yul\":9153:9319   */\n      swap2\n      swap1\n      pop\n      jump\t// out\n        /* \"#utility.yul\":9325:9469   */\n    tag_114:\n        /* \"#utility.yul\":9380:9385   */\n      0x00\n        /* \"#utility.yul\":9405:9462   */\n      tag_217\n        /* \"#utility.yul\":9456:9460   */\n      dup3\n        /* \"#utility.yul\":9450:9461   */\n      sload\n        /* \"#utility.yul\":9405:9462   */\n      tag_113\n      jump\t// in\n    tag_217:\n        /* \"#utility.yul\":9396:9462   */\n      swap1\n      pop\n        /* \"#utility.yul\":9325:9469   */\n      swap2\n      swap1\n      pop\n      jump\t// out\n        /* \"#utility.yul\":9475:9585   */\n    tag_115:\n        /* \"#utility.yul\":9542:9546   */\n      0x00\n        /* \"#utility.yul\":9574:9578   */\n      0x01\n        /* \"#utility.yul\":9569:9572   */\n      dup3\n        /* \"#utility.yul\":9565:9579   */\n      add\n        /* \"#utility.yul\":9557:9579   */\n      swap1\n      pop\n        /* \"#utility.yul\":9475:9585   */\n      swap2\n      swap1\n      pop\n      jump\t// out\n        /* \"#utility.yul\":9621:10416   */\n    tag_116:\n        /* \"#utility.yul\":9755:9758   */\n      0x00\n        /* \"#utility.yul\":9784:9835   */\n      tag_220\n        /* \"#utility.yul\":9829:9834   */\n      dup3\n        /* \"#utility.yul\":9784:9835   */\n      tag_106\n      jump\t// in\n    tag_220:\n        /* \"#utility.yul\":9851:9955   */\n      tag_221\n        /* \"#utility.yul\":9948:9954   */\n      dup2\n        /* \"#utility.yul\":9943:9946   */\n      dup6\n        /* \"#utility.yul\":9851:9955   */\n      tag_107\n      jump\t// in\n    tag_221:\n        /* \"#utility.yul\":9844:9955   */\n      swap4\n      pop\n        /* \"#utility.yul\":9979:10032   */\n      tag_222\n        /* \"#utility.yul\":10026:10031   */\n      dup4\n        /* \"#utility.yul\":9979:10032   */\n      tag_108\n      jump\t// in\n    tag_222:\n        /* \"#utility.yul\":10055:10062   */\n      dup1\n        /* \"#utility.yul\":10086:10087   */\n      0x00\n        /* \"#utility.yul\":10071:10391   */\n    tag_223:\n        /* \"#utility.yul\":10096:10102   */\n      dup4\n        /* \"#utility.yul\":10093:10094   */\n      dup2\n        /* \"#utility.yul\":10090:10103   */\n      lt\n        /* \"#utility.yul\":10071:10391   */\n      iszero\n      tag_225\n      jumpi\n        /* \"#utility.yul\":10166:10210   */\n      tag_226\n        /* \"#utility.yul\":10203:10209   */\n      dup3\n        /* \"#utility.yul\":10166:10210   */\n      tag_114\n      jump\t// in\n    tag_226:\n        /* \"#utility.yul\":10230:10301   */\n      tag_227\n        /* \"#utility.yul\":10297:10300   */\n      dup9\n        /* \"#utility.yul\":10282:10295   */\n      dup3\n        /* \"#utility.yul\":10230:10301   */\n      tag_110\n      jump\t// in\n    tag_227:\n        /* \"#utility.yul\":10223:10301   */\n      swap8\n      pop\n        /* \"#utility.yul\":10324:10381   */\n      tag_228\n        /* \"#utility.yul\":10374:10380   */\n      dup4\n        /* \"#utility.yul\":10324:10381   */\n      tag_115\n      jump\t// in\n    tag_228:\n        /* \"#utility.yul\":10314:10381   */\n      swap3\n      pop\n        /* \"#utility.yul\":10131:10391   */\n      pop\n        /* \"#utility.yul\":10118:10119   */\n      0x01\n        /* \"#utility.yul\":10115:10116   */\n      dup2\n        /* \"#utility.yul\":10111:10120   */\n      add\n        /* \"#utility.yul\":10106:10120   */\n      swap1\n      pop\n        /* \"#utility.yul\":10071:10391   */\n      jump(tag_223)\n    tag_225:\n        /* \"#utility.yul\":10075:10089   */\n      pop\n        /* \"#utility.yul\":10407:10410   */\n      dup6\n        /* \"#utility.yul\":10400:10410   */\n      swap4\n      pop\n        /* \"#utility.yul\":9760:10416   */\n      pop\n      pop\n      pop\n        /* \"#utility.yul\":9621:10416   */\n      swap3\n      swap2\n      pop\n      pop\n      jump\t// out\n        /* \"#utility.yul\":10422:11033   */\n    tag_70:\n        /* \"#utility.yul\":10637:10640   */\n      0x00\n        /* \"#utility.yul\":10652:10727   */\n      tag_230\n        /* \"#utility.yul\":10723:10726   */\n      dup3\n        /* \"#utility.yul\":10714:10720   */\n      dup7\n        /* \"#utility.yul\":10652:10727   */\n      tag_103\n      jump\t// in\n    tag_230:\n        /* \"#utility.yul\":10752:10754   */\n      0x20\n        /* \"#utility.yul\":10747:10750   */\n      dup3\n        /* \"#utility.yul\":10743:10755   */\n      add\n        /* \"#utility.yul\":10736:10755   */\n      swap2\n      pop\n        /* \"#utility.yul\":10765:10840   */\n      tag_231\n        /* \"#utility.yul\":10836:10839   */\n      dup3\n        /* \"#utility.yul\":10827:10833   */\n      dup6\n        /* \"#utility.yul\":10765:10840   */\n      tag_105\n      jump\t// in\n    tag_231:\n        /* \"#utility.yul\":10865:10867   */\n      0x20\n        /* \"#utility.yul\":10860:10863   */\n      dup3\n        /* \"#utility.yul\":10856:10868   */\n      add\n        /* \"#utility.yul\":10849:10868   */\n      swap2\n      pop\n        /* \"#utility.yul\":10885:11007   */\n      tag_232\n        /* \"#utility.yul\":11003:11006   */\n      dup3\n        /* \"#utility.yul\":10994:11000   */\n      dup5\n        /* \"#utility.yul\":10885:11007   */\n      tag_116\n      jump\t// in\n    tag_232:\n        /* \"#utility.yul\":10878:11007   */\n      swap2\n      pop\n        /* \"#utility.yul\":11024:11027   */\n      dup2\n        /* \"#utility.yul\":11017:11027   */\n      swap1\n      pop\n        /* \"#utility.yul\":10422:11033   */\n      swap5\n      swap4\n      pop\n      pop\n      pop\n      pop\n      jump\t// out\n\n    auxdata: 0xa2646970667358221220bd8033f60a26066c90ef24c5017ae4a9a914d07a1fba12fedac222ec33081e5264736f6c63430008190033\n}\n",
				"bytecode": {
					"linkReferences": {},
					"object": "6080604052348015600e575f80fd5b50335f806101000a81548173ffffffffffffffffffffffffffffffffffffffff021916908373ffffffffffffffffffffffffffffffffffffffff160217905550610b758061005b5f395ff3fe608060405260043610610049575f3560e01c8063481c6a751461004d5780635d495aea146100775780638b5b9ccc1461008d578063b688a363146100b7578063f71d96cb146100c1575b5f80fd5b348015610058575f80fd5b506100616100fd565b60405161006e91906105ce565b60405180910390f35b348015610082575f80fd5b5061008b610120565b005b348015610098575f80fd5b506100a1610339565b6040516100ae919061069e565b60405180910390f35b6100bf6103c4565b005b3480156100cc575f80fd5b506100e760048036038101906100e291906106f5565b610471565b6040516100f491906105ce565b60405180910390f35b5f8054906101000a900473ffffffffffffffffffffffffffffffffffffffff1681565b5f8054906101000a900473ffffffffffffffffffffffffffffffffffffffff1673ffffffffffffffffffffffffffffffffffffffff163373ffffffffffffffffffffffffffffffffffffffff16146101ad576040517f08c379a00000000000000000000000000000000000000000000000000000000081526004016101a4906107a0565b60405180910390fd5b5f60646001476101bd91906107eb565b6101c79190610859565b90505f81476101d69190610889565b90505f8054906101000a900473ffffffffffffffffffffffffffffffffffffffff1673ffffffffffffffffffffffffffffffffffffffff166108fc8390811502906040515f60405180830381858888f1935050505015801561023a573d5f803e3d5ffd5b505f60018054905061024a6104ac565b61025491906108bc565b90506001818154811061026a576102696108ec565b5b905f5260205f20015f9054906101000a900473ffffffffffffffffffffffffffffffffffffffff1673ffffffffffffffffffffffffffffffffffffffff166108fc8390811502906040515f60405180830381858888f193505050501580156102d4573d5f803e3d5ffd5b505f67ffffffffffffffff8111156102ef576102ee610919565b5b60405190808252806020026020018201604052801561031d5781602001602082028036833780820191505090505b50600190805190602001906103339291906104ed565b50505050565b606060018054806020026020016040519081016040528092919081815260200182805480156103ba57602002820191905f5260205f20905b815f9054906101000a900473ffffffffffffffffffffffffffffffffffffffff1673ffffffffffffffffffffffffffffffffffffffff1681526020019060010190808311610371575b5050505050905090565b670de0b6b3a764000034101561040f576040517f08c379a000000000000000000000000000000000000000000000000000000000815260040161040690610990565b60405180910390fd5b600133908060018154018082558091505060019003905f5260205f20015f9091909190916101000a81548173ffffffffffffffffffffffffffffffffffffffff021916908373ffffffffffffffffffffffffffffffffffffffff160217905550565b60018181548110610480575f80fd5b905f5260205f20015f915054906101000a900473ffffffffffffffffffffffffffffffffffffffff1681565b5f6001436104ba9190610889565b404260016040516020016104d093929190610b07565b604051602081830303815290604052805190602001205f1c905090565b828054828255905f5260205f20908101928215610563579160200282015b82811115610562578251825f6101000a81548173ffffffffffffffffffffffffffffffffffffffff021916908373ffffffffffffffffffffffffffffffffffffffff1602179055509160200191906001019061050b565b5b5090506105709190610574565b5090565b5b8082111561058b575f815f905550600101610575565b5090565b5f73ffffffffffffffffffffffffffffffffffffffff82169050919050565b5f6105b88261058f565b9050919050565b6105c8816105ae565b82525050565b5f6020820190506105e15f8301846105bf565b92915050565b5f81519050919050565b5f82825260208201905092915050565b5f819050602082019050919050565b610619816105ae565b82525050565b5f61062a8383610610565b60208301905092915050565b5f602082019050919050565b5f61064c826105e7565b61065681856105f1565b935061066183610601565b805f5b83811015610691578151610678888261061f565b975061068383610636565b925050600181019050610664565b5085935050505092915050565b5f6020820190508181035f8301526106b68184610642565b905092915050565b5f80fd5b5f819050919050565b6106d4816106c2565b81146106de575f80fd5b50565b5f813590506106ef816106cb565b92915050565b5f6020828403121561070a576107096106be565b5b5f610717848285016106e1565b91505092915050565b5f82825260208201905092915050565b7f546869732066756e6374696f6e2063616e206f6e6c792062652063616c6c65645f8201527f20627920746865206d616e616765720000000000000000000000000000000000602082015250565b5f61078a602f83610720565b915061079582610730565b604082019050919050565b5f6020820190508181035f8301526107b78161077e565b9050919050565b7f4e487b71000000000000000000000000000000000000000000000000000000005f52601160045260245ffd5b5f6107f5826106c2565b9150610800836106c2565b925082820261080e816106c2565b91508282048414831517610825576108246107be565b5b5092915050565b7f4e487b71000000000000000000000000000000000000000000000000000000005f52601260045260245ffd5b5f610863826106c2565b915061086e836106c2565b92508261087e5761087d61082c565b5b828204905092915050565b5f610893826106c2565b915061089e836106c2565b92508282039050818111156108b6576108b56107be565b5b92915050565b5f6108c6826106c2565b91506108d1836106c2565b9250826108e1576108e061082c565b5b828206905092915050565b7f4e487b71000000000000000000000000000000000000000000000000000000005f52603260045260245ffd5b7f4e487b71000000000000000000000000000000000000000000000000000000005f52604160045260245ffd5b7f4d7573742073656e6420312045544820746f206a6f696e2067616d65000000005f82015250565b5f61097a601c83610720565b915061098582610946565b602082019050919050565b5f6020820190508181035f8301526109a78161096e565b9050919050565b5f819050919050565b5f819050919050565b6109d16109cc826109ae565b6109b7565b82525050565b5f819050919050565b6109f16109ec826106c2565b6109d7565b82525050565b5f81549050919050565b5f81905092915050565b5f819050815f5260205f209050919050565b610a26816105ae565b82525050565b5f610a378383610a1d565b60208301905092915050565b5f815f1c9050919050565b5f73ffffffffffffffffffffffffffffffffffffffff82169050919050565b5f610a7f610a7a83610a43565b610a4e565b9050919050565b5f610a918254610a6d565b9050919050565b5f600182019050919050565b5f610aae826109f7565b610ab88185610a01565b9350610ac383610a0b565b805f5b83811015610afa57610ad782610a86565b610ae18882610a2c565b9750610aec83610a98565b925050600181019050610ac6565b5085935050505092915050565b5f610b1282866109c0565b602082019150610b2282856109e0565b602082019150610b328284610aa4565b915081905094935050505056fea2646970667358221220bd8033f60a26066c90ef24c5017ae4a9a914d07a1fba12fedac222ec33081e5264736f6c63430008190033",
					"opcodes": "PUSH1 0x80 PUSH1 0x40 MSTORE CALLVALUE DUP1 ISZERO PUSH1 0xE JUMPI PUSH0 DUP1 REVERT JUMPDEST POP CALLER PUSH0 DUP1 PUSH2 0x100 EXP DUP2 SLOAD DUP2 PUSH20 0xFFFFFFFFFFFFFFFFFFFFFFFFFFFFFFFFFFFFFFFF MUL NOT AND SWAP1 DUP4 PUSH20 0xFFFFFFFFFFFFFFFFFFFFFFFFFFFFFFFFFFFFFFFF AND MUL OR SWAP1 SSTORE POP PUSH2 0xB75 DUP1 PUSH2 0x5B PUSH0 CODECOPY PUSH0 RETURN INVALID PUSH1 0x80 PUSH1 0x40 MSTORE PUSH1 0x4 CALLDATASIZE LT PUSH2 0x49 JUMPI PUSH0 CALLDATALOAD PUSH1 0xE0 SHR DUP1 PUSH4 0x481C6A75 EQ PUSH2 0x4D JUMPI DUP1 PUSH4 0x5D495AEA EQ PUSH2 0x77 JUMPI DUP1 PUSH4 0x8B5B9CCC EQ PUSH2 0x8D JUMPI DUP1 PUSH4 0xB688A363 EQ PUSH2 0xB7 JUMPI DUP1 PUSH4 0xF71D96CB EQ PUSH2 0xC1 JUMPI JUMPDEST PUSH0 DUP1 REVERT JUMPDEST CALLVALUE DUP1 ISZERO PUSH2 0x58 JUMPI PUSH0 DUP1 REVERT JUMPDEST POP PUSH2 0x61 PUSH2 0xFD JUMP JUMPDEST PUSH1 0x40 MLOAD PUSH2 0x6E SWAP2 SWAP1 PUSH2 0x5CE JUMP JUMPDEST PUSH1 0x40 MLOAD DUP1 SWAP2 SUB SWAP1 RETURN JUMPDEST CALLVALUE DUP1 ISZERO PUSH2 0x82 JUMPI PUSH0 DUP1 REVERT JUMPDEST POP PUSH2 0x8B PUSH2 0x120 JUMP JUMPDEST STOP JUMPDEST CALLVALUE DUP1 ISZERO PUSH2 0x98 JUMPI PUSH0 DUP1 REVERT JUMPDEST POP PUSH2 0xA1 PUSH2 0x339 JUMP JUMPDEST PUSH1 0x40 MLOAD PUSH2 0xAE SWAP2 SWAP1 PUSH2 0x69E JUMP JUMPDEST PUSH1 0x40 MLOAD DUP1 SWAP2 SUB SWAP1 RETURN JUMPDEST PUSH2 0xBF PUSH2 0x3C4 JUMP JUMPDEST STOP JUMPDEST CALLVALUE DUP1 ISZERO PUSH2 0xCC JUMPI PUSH0 DUP1 REVERT JUMPDEST POP PUSH2 0xE7 PUSH1 0x4 DUP1 CALLDATASIZE SUB DUP2 ADD SWAP1 PUSH2 0xE2 SWAP2 SWAP1 PUSH2 0x6F5 JUMP JUMPDEST PUSH2 0x471 JUMP JUMPDEST PUSH1 0x40 MLOAD PUSH2 0xF4 SWAP2 SWAP1 PUSH2 0x5CE JUMP JUMPDEST PUSH1 0x40 MLOAD DUP1 SWAP2 SUB SWAP1 RETURN JUMPDEST PUSH0 DUP1 SLOAD SWAP1 PUSH2 0x100 EXP SWAP1 DIV PUSH20 0xFFFFFFFFFFFFFFFFFFFFFFFFFFFFFFFFFFFFFFFF AND DUP2 JUMP JUMPDEST PUSH0 DUP1 SLOAD SWAP1 PUSH2 0x100 EXP SWAP1 DIV PUSH20 0xFFFFFFFFFFFFFFFFFFFFFFFFFFFFFFFFFFFFFFFF AND PUSH20 0xFFFFFFFFFFFFFFFFFFFFFFFFFFFFFFFFFFFFFFFF AND CALLER PUSH20 0xFFFFFFFFFFFFFFFFFFFFFFFFFFFFFFFFFFFFFFFF AND EQ PUSH2 0x1AD JUMPI PUSH1 0x40 MLOAD PUSH32 0x8C379A000000000000000000000000000000000000000000000000000000000 DUP2 MSTORE PUSH1 0x4 ADD PUSH2 0x1A4 SWAP1 PUSH2 0x7A0 JUMP JUMPDEST PUSH1 0x40 MLOAD DUP1 SWAP2 SUB SWAP1 REVERT JUMPDEST PUSH0 PUSH1 0x64 PUSH1 0x1 SELFBALANCE PUSH2 0x1BD SWAP2 SWAP1 PUSH2 0x7EB JUMP JUMPDEST PUSH2 0x1C7 SWAP2 SWAP1 PUSH2 0x859 JUMP JUMPDEST SWAP1 POP PUSH0 DUP2 SELFBALANCE PUSH2 0x1D6 SWAP2 SWAP1 PUSH2 0x889 JUMP JUMPDEST SWAP1 POP PUSH0 DUP1 SLOAD SWAP1 PUSH2 0x100 EXP SWAP1 DIV PUSH20 0xFFFFFFFFFFFFFFFFFFFFFFFFFFFFFFFFFFFFFFFF AND PUSH20 0xFFFFFFFFFFFFFFFFFFFFFFFFFFFFFFFFFFFFFFFF AND PUSH2 0x8FC DUP4 SWAP1 DUP2 ISZERO MUL SWAP1 PUSH1 0x40 MLOAD PUSH0 PUSH1 0x40 MLOAD DUP1 DUP4 SUB DUP2 DUP6 DUP9 DUP9 CALL SWAP4 POP POP POP POP ISZERO DUP1 ISZERO PUSH2 0x23A JUMPI RETURNDATASIZE PUSH0 DUP1 RETURNDATACOPY RETURNDATASIZE PUSH0 REVERT JUMPDEST POP PUSH0 PUSH1 0x1 DUP1 SLOAD SWAP1 POP PUSH2 0x24A PUSH2 0x4AC JUMP JUMPDEST PUSH2 0x254 SWAP2 SWAP1 PUSH2 0x8BC JUMP JUMPDEST SWAP1 POP PUSH1 0x1 DUP2 DUP2 SLOAD DUP2 LT PUSH2 0x26A JUMPI PUSH2 0x269 PUSH2 0x8EC JUMP JUMPDEST JUMPDEST SWAP1 PUSH0 MSTORE PUSH1 0x20 PUSH0 KECCAK256 ADD PUSH0 SWAP1 SLOAD SWAP1 PUSH2 0x100 EXP SWAP1 DIV PUSH20 0xFFFFFFFFFFFFFFFFFFFFFFFFFFFFFFFFFFFFFFFF AND PUSH20 0xFFFFFFFFFFFFFFFFFFFFFFFFFFFFFFFFFFFFFFFF AND PUSH2 0x8FC DUP4 SWAP1 DUP2 ISZERO MUL SWAP1 PUSH1 0x40 MLOAD PUSH0 PUSH1 0x40 MLOAD DUP1 DUP4 SUB DUP2 DUP6 DUP9 DUP9 CALL SWAP4 POP POP POP POP ISZERO DUP1 ISZERO PUSH2 0x2D4 JUMPI RETURNDATASIZE PUSH0 DUP1 RETURNDATACOPY RETURNDATASIZE PUSH0 REVERT JUMPDEST POP PUSH0 PUSH8 0xFFFFFFFFFFFFFFFF DUP2 GT ISZERO PUSH2 0x2EF JUMPI PUSH2 0x2EE PUSH2 0x919 JUMP JUMPDEST JUMPDEST PUSH1 0x40 MLOAD SWAP1 DUP1 DUP3 MSTORE DUP1 PUSH1 0x20 MUL PUSH1 0x20 ADD DUP3 ADD PUSH1 0x40 MSTORE DUP1 ISZERO PUSH2 0x31D JUMPI DUP2 PUSH1 0x20 ADD PUSH1 0x20 DUP3 MUL DUP1 CALLDATASIZE DUP4 CALLDATACOPY DUP1 DUP3 ADD SWAP2 POP POP SWAP1 POP JUMPDEST POP PUSH1 0x1 SWAP1 DUP1 MLOAD SWAP1 PUSH1 0x20 ADD SWAP1 PUSH2 0x333 SWAP3 SWAP2 SWAP1 PUSH2 0x4ED JUMP JUMPDEST POP POP POP POP JUMP JUMPDEST PUSH1 0x60 PUSH1 0x1 DUP1 SLOAD DUP1 PUSH1 0x20 MUL PUSH1 0x20 ADD PUSH1 0x40 MLOAD SWAP1 DUP2 ADD PUSH1 0x40 MSTORE DUP1 SWAP3 SWAP2 SWAP1 DUP2 DUP2 MSTORE PUSH1 0x20 ADD DUP3 DUP1 SLOAD DUP1 ISZERO PUSH2 0x3BA JUMPI PUSH1 0x20 MUL DUP3 ADD SWAP2 SWAP1 PUSH0 MSTORE PUSH1 0x20 PUSH0 KECCAK256 SWAP1 JUMPDEST DUP2 PUSH0 SWAP1 SLOAD SWAP1 PUSH2 0x100 EXP SWAP1 DIV PUSH20 0xFFFFFFFFFFFFFFFFFFFFFFFFFFFFFFFFFFFFFFFF AND PUSH20 0xFFFFFFFFFFFFFFFFFFFFFFFFFFFFFFFFFFFFFFFF AND DUP2 MSTORE PUSH1 0x20 ADD SWAP1 PUSH1 0x1 ADD SWAP1 DUP1 DUP4 GT PUSH2 0x371 JUMPI JUMPDEST POP POP POP POP POP SWAP1 POP SWAP1 JUMP JUMPDEST PUSH8 0xDE0B6B3A7640000 CALLVALUE LT ISZERO PUSH2 0x40F JUMPI PUSH1 0x40 MLOAD PUSH32 0x8C379A000000000000000000000000000000000000000000000000000000000 DUP2 MSTORE PUSH1 0x4 ADD PUSH2 0x406 SWAP1 PUSH2 0x990 JUMP JUMPDEST PUSH1 0x40 MLOAD DUP1 SWAP2 SUB SWAP1 REVERT JUMPDEST PUSH1 0x1 CALLER SWAP1 DUP1 PUSH1 0x1 DUP2 SLOAD ADD DUP1 DUP3 SSTORE DUP1 SWAP2 POP POP PUSH1 0x1 SWAP1 SUB SWAP1 PUSH0 MSTORE PUSH1 0x20 PUSH0 KECCAK256 ADD PUSH0 SWAP1 SWAP2 SWAP1 SWAP2 SWAP1 SWAP2 PUSH2 0x100 EXP DUP2 SLOAD DUP2 PUSH20 0xFFFFFFFFFFFFFFFFFFFFFFFFFFFFFFFFFFFFFFFF MUL NOT AND SWAP1 DUP4 PUSH20 0xFFFFFFFFFFFFFFFFFFFFFFFFFFFFFFFFFFFFFFFF AND MUL OR SWAP1 SSTORE POP JUMP JUMPDEST PUSH1 0x1 DUP2 DUP2 SLOAD DUP2 LT PUSH2 0x480 JUMPI PUSH0 DUP1 REVERT JUMPDEST SWAP1 PUSH0 MSTORE PUSH1 0x20 PUSH0 KECCAK256 ADD PUSH0 SWAP2 POP SLOAD SWAP1 PUSH2 0x100 EXP SWAP1 DIV PUSH20 0xFFFFFFFFFFFFFFFFFFFFFFFFFFFFFFFFFFFFFFFF AND DUP2 JUMP JUMPDEST PUSH0 PUSH1 0x1 NUMBER PUSH2 0x4BA SWAP2 SWAP1 PUSH2 0x889 JUMP JUMPDEST BLOCKHASH TIMESTAMP PUSH1 0x1 PUSH1 0x40 MLOAD PUSH1 0x20 ADD PUSH2 0x4D0 SWAP4 SWAP3 SWAP2 SWAP1 PUSH2 0xB07 JUMP JUMPDEST PUSH1 0x40 MLOAD PUSH1 0x20 DUP2 DUP4 SUB SUB DUP2 MSTORE SWAP1 PUSH1 0x40 MSTORE DUP1 MLOAD SWAP1 PUSH1 0x20 ADD KECCAK256 PUSH0 SHR SWAP1 POP SWAP1 JUMP JUMPDEST DUP3 DUP1 SLOAD DUP3 DUP3 SSTORE SWAP1 PUSH0 MSTORE PUSH1 0x20 PUSH0 KECCAK256 SWAP1 DUP2 ADD SWAP3 DUP3 ISZERO PUSH2 0x563 JUMPI SWAP2 PUSH1 0x20 MUL DUP3 ADD JUMPDEST DUP3 DUP2 GT ISZERO PUSH2 0x562 JUMPI DUP3 MLOAD DUP3 PUSH0 PUSH2 0x100 EXP DUP2 SLOAD DUP2 PUSH20 0xFFFFFFFFFFFFFFFFFFFFFFFFFFFFFFFFFFFFFFFF MUL NOT AND SWAP1 DUP4 PUSH20 0xFFFFFFFFFFFFFFFFFFFFFFFFFFFFFFFFFFFFFFFF AND MUL OR SWAP1 SSTORE POP SWAP2 PUSH1 0x20 ADD SWAP2 SWAP1 PUSH1 0x1 ADD SWAP1 PUSH2 0x50B JUMP JUMPDEST JUMPDEST POP SWAP1 POP PUSH2 0x570 SWAP2 SWAP1 PUSH2 0x574 JUMP JUMPDEST POP SWAP1 JUMP JUMPDEST JUMPDEST DUP1 DUP3 GT ISZERO PUSH2 0x58B JUMPI PUSH0 DUP2 PUSH0 SWAP1 SSTORE POP PUSH1 0x1 ADD PUSH2 0x575 JUMP JUMPDEST POP SWAP1 JUMP JUMPDEST PUSH0 PUSH20 0xFFFFFFFFFFFFFFFFFFFFFFFFFFFFFFFFFFFFFFFF DUP3 AND SWAP1 POP SWAP2 SWAP1 POP JUMP JUMPDEST PUSH0 PUSH2 0x5B8 DUP3 PUSH2 0x58F JUMP JUMPDEST SWAP1 POP SWAP2 SWAP1 POP JUMP JUMPDEST PUSH2 0x5C8 DUP2 PUSH2 0x5AE JUMP JUMPDEST DUP3 MSTORE POP POP JUMP JUMPDEST PUSH0 PUSH1 0x20 DUP3 ADD SWAP1 POP PUSH2 0x5E1 PUSH0 DUP4 ADD DUP5 PUSH2 0x5BF JUMP JUMPDEST SWAP3 SWAP2 POP POP JUMP JUMPDEST PUSH0 DUP2 MLOAD SWAP1 POP SWAP2 SWAP1 POP JUMP JUMPDEST PUSH0 DUP3 DUP3 MSTORE PUSH1 0x20 DUP3 ADD SWAP1 POP SWAP3 SWAP2 POP POP JUMP JUMPDEST PUSH0 DUP2 SWAP1 POP PUSH1 0x20 DUP3 ADD SWAP1 POP SWAP2 SWAP1 POP JUMP JUMPDEST PUSH2 0x619 DUP2 PUSH2 0x5AE JUMP JUMPDEST DUP3 MSTORE POP POP JUMP JUMPDEST PUSH0 PUSH2 0x62A DUP4 DUP4 PUSH2 0x610 JUMP JUMPDEST PUSH1 0x20 DUP4 ADD SWAP1 POP SWAP3 SWAP2 POP POP JUMP JUMPDEST PUSH0 PUSH1 0x20 DUP3 ADD SWAP1 POP SWAP2 SWAP1 POP JUMP JUMPDEST PUSH0 PUSH2 0x64C DUP3 PUSH2 0x5E7 JUMP JUMPDEST PUSH2 0x656 DUP2 DUP6 PUSH2 0x5F1 JUMP JUMPDEST SWAP4 POP PUSH2 0x661 DUP4 PUSH2 0x601 JUMP JUMPDEST DUP1 PUSH0 JUMPDEST DUP4 DUP2 LT ISZERO PUSH2 0x691 JUMPI DUP2 MLOAD PUSH2 0x678 DUP9 DUP3 PUSH2 0x61F JUMP JUMPDEST SWAP8 POP PUSH2 0x683 DUP4 PUSH2 0x636 JUMP JUMPDEST SWAP3 POP POP PUSH1 0x1 DUP2 ADD SWAP1 POP PUSH2 0x664 JUMP JUMPDEST POP DUP6 SWAP4 POP POP POP POP SWAP3 SWAP2 POP POP JUMP JUMPDEST PUSH0 PUSH1 0x20 DUP3 ADD SWAP1 POP DUP2 DUP2 SUB PUSH0 DUP4 ADD MSTORE PUSH2 0x6B6 DUP2 DUP5 PUSH2 0x642 JUMP JUMPDEST SWAP1 POP SWAP3 SWAP2 POP POP JUMP JUMPDEST PUSH0 DUP1 REVERT JUMPDEST PUSH0 DUP2 SWAP1 POP SWAP2 SWAP1 POP JUMP JUMPDEST PUSH2 0x6D4 DUP2 PUSH2 0x6C2 JUMP JUMPDEST DUP2 EQ PUSH2 0x6DE JUMPI PUSH0 DUP1 REVERT JUMPDEST POP JUMP JUMPDEST PUSH0 DUP2 CALLDATALOAD SWAP1 POP PUSH2 0x6EF DUP2 PUSH2 0x6CB JUMP JUMPDEST SWAP3 SWAP2 POP POP JUMP JUMPDEST PUSH0 PUSH1 0x20 DUP3 DUP5 SUB SLT ISZERO PUSH2 0x70A JUMPI PUSH2 0x709 PUSH2 0x6BE JUMP JUMPDEST JUMPDEST PUSH0 PUSH2 0x717 DUP5 DUP3 DUP6 ADD PUSH2 0x6E1 JUMP JUMPDEST SWAP2 POP POP SWAP3 SWAP2 POP POP JUMP JUMPDEST PUSH0 DUP3 DUP3 MSTORE PUSH1 0x20 DUP3 ADD SWAP1 POP SWAP3 SWAP2 POP POP JUMP JUMPDEST PUSH32 0x546869732066756E6374696F6E2063616E206F6E6C792062652063616C6C6564 PUSH0 DUP3 ADD MSTORE PUSH32 0x20627920746865206D616E616765720000000000000000000000000000000000 PUSH1 0x20 DUP3 ADD MSTORE POP JUMP JUMPDEST PUSH0 PUSH2 0x78A PUSH1 0x2F DUP4 PUSH2 0x720 JUMP JUMPDEST SWAP2 POP PUSH2 0x795 DUP3 PUSH2 0x730 JUMP JUMPDEST PUSH1 0x40 DUP3 ADD SWAP1 POP SWAP2 SWAP1 POP JUMP JUMPDEST PUSH0 PUSH1 0x20 DUP3 ADD SWAP1 POP DUP2 DUP2 SUB PUSH0 DUP4 ADD MSTORE PUSH2 0x7B7 DUP2 PUSH2 0x77E JUMP JUMPDEST SWAP1 POP SWAP2 SWAP1 POP JUMP JUMPDEST PUSH32 0x4E487B7100000000000000000000000000000000000000000000000000000000 PUSH0 MSTORE PUSH1 0x11 PUSH1 0x4 MSTORE PUSH1 0x24 PUSH0 REVERT JUMPDEST PUSH0 PUSH2 0x7F5 DUP3 PUSH2 0x6C2 JUMP JUMPDEST SWAP2 POP PUSH2 0x800 DUP4 PUSH2 0x6C2 JUMP JUMPDEST SWAP3 POP DUP3 DUP3 MUL PUSH2 0x80E DUP2 PUSH2 0x6C2 JUMP JUMPDEST SWAP2 POP DUP3 DUP3 DIV DUP5 EQ DUP4 ISZERO OR PUSH2 0x825 JUMPI PUSH2 0x824 PUSH2 0x7BE JUMP JUMPDEST JUMPDEST POP SWAP3 SWAP2 POP POP JUMP JUMPDEST PUSH32 0x4E487B7100000000000000000000000000000000000000000000000000000000 PUSH0 MSTORE PUSH1 0x12 PUSH1 0x4 MSTORE PUSH1 0x24 PUSH0 REVERT JUMPDEST PUSH0 PUSH2 0x863 DUP3 PUSH2 0x6C2 JUMP JUMPDEST SWAP2 POP PUSH2 0x86E DUP4 PUSH2 0x6C2 JUMP JUMPDEST SWAP3 POP DUP3 PUSH2 0x87E JUMPI PUSH2 0x87D PUSH2 0x82C JUMP JUMPDEST JUMPDEST DUP3 DUP3 DIV SWAP1 POP SWAP3 SWAP2 POP POP JUMP JUMPDEST PUSH0 PUSH2 0x893 DUP3 PUSH2 0x6C2 JUMP JUMPDEST SWAP2 POP PUSH2 0x89E DUP4 PUSH2 0x6C2 JUMP JUMPDEST SWAP3 POP DUP3 DUP3 SUB SWAP1 POP DUP2 DUP2 GT ISZERO PUSH2 0x8B6 JUMPI PUSH2 0x8B5 PUSH2 0x7BE JUMP JUMPDEST JUMPDEST SWAP3 SWAP2 POP POP JUMP JUMPDEST PUSH0 PUSH2 0x8C6 DUP3 PUSH2 0x6C2 JUMP JUMPDEST SWAP2 POP PUSH2 0x8D1 DUP4 PUSH2 0x6C2 JUMP JUMPDEST SWAP3 POP DUP3 PUSH2 0x8E1 JUMPI PUSH2 0x8E0 PUSH2 0x82C JUMP JUMPDEST JUMPDEST DUP3 DUP3 MOD SWAP1 POP SWAP3 SWAP2 POP POP JUMP JUMPDEST PUSH32 0x4E487B7100000000000000000000000000000000000000000000000000000000 PUSH0 MSTORE PUSH1 0x32 PUSH1 0x4 MSTORE PUSH1 0x24 PUSH0 REVERT JUMPDEST PUSH32 0x4E487B7100000000000000000000000000000000000000000000000000000000 PUSH0 MSTORE PUSH1 0x41 PUSH1 0x4 MSTORE PUSH1 0x24 PUSH0 REVERT JUMPDEST PUSH32 0x4D7573742073656E6420312045544820746F206A6F696E2067616D6500000000 PUSH0 DUP3 ADD MSTORE POP JUMP JUMPDEST PUSH0 PUSH2 0x97A PUSH1 0x1C DUP4 PUSH2 0x720 JUMP JUMPDEST SWAP2 POP PUSH2 0x985 DUP3 PUSH2 0x946 JUMP JUMPDEST PUSH1 0x20 DUP3 ADD SWAP1 POP SWAP2 SWAP1 POP JUMP JUMPDEST PUSH0 PUSH1 0x20 DUP3 ADD SWAP1 POP DUP2 DUP2 SUB PUSH0 DUP4 ADD MSTORE PUSH2 0x9A7 DUP2 PUSH2 0x96E JUMP JUMPDEST SWAP1 POP SWAP2 SWAP1 POP JUMP JUMPDEST PUSH0 DUP2 SWAP1 POP SWAP2 SWAP1 POP JUMP JUMPDEST PUSH0 DUP2 SWAP1 POP SWAP2 SWAP1 POP JUMP JUMPDEST PUSH2 0x9D1 PUSH2 0x9CC DUP3 PUSH2 0x9AE JUMP JUMPDEST PUSH2 0x9B7 JUMP JUMPDEST DUP3 MSTORE POP POP JUMP JUMPDEST PUSH0 DUP2 SWAP1 POP SWAP2 SWAP1 POP JUMP JUMPDEST PUSH2 0x9F1 PUSH2 0x9EC DUP3 PUSH2 0x6C2 JUMP JUMPDEST PUSH2 0x9D7 JUMP JUMPDEST DUP3 MSTORE POP POP JUMP JUMPDEST PUSH0 DUP2 SLOAD SWAP1 POP SWAP2 SWAP1 POP JUMP JUMPDEST PUSH0 DUP2 SWAP1 POP SWAP3 SWAP2 POP POP JUMP JUMPDEST PUSH0 DUP2 SWAP1 POP DUP2 PUSH0 MSTORE PUSH1 0x20 PUSH0 KECCAK256 SWAP1 POP SWAP2 SWAP1 POP JUMP JUMPDEST PUSH2 0xA26 DUP2 PUSH2 0x5AE JUMP JUMPDEST DUP3 MSTORE POP POP JUMP JUMPDEST PUSH0 PUSH2 0xA37 DUP4 DUP4 PUSH2 0xA1D JUMP JUMPDEST PUSH1 0x20 DUP4 ADD SWAP1 POP SWAP3 SWAP2 POP POP JUMP JUMPDEST PUSH0 DUP2 PUSH0 SHR SWAP1 POP SWAP2 SWAP1 POP JUMP JUMPDEST PUSH0 PUSH20 0xFFFFFFFFFFFFFFFFFFFFFFFFFFFFFFFFFFFFFFFF DUP3 AND SWAP1 POP SWAP2 SWAP1 POP JUMP JUMPDEST PUSH0 PUSH2 0xA7F PUSH2 0xA7A DUP4 PUSH2 0xA43 JUMP JUMPDEST PUSH2 0xA4E JUMP JUMPDEST SWAP1 POP SWAP2 SWAP1 POP JUMP JUMPDEST PUSH0 PUSH2 0xA91 DUP3 SLOAD PUSH2 0xA6D JUMP JUMPDEST SWAP1 POP SWAP2 SWAP1 POP JUMP JUMPDEST PUSH0 PUSH1 0x1 DUP3 ADD SWAP1 POP SWAP2 SWAP1 POP JUMP JUMPDEST PUSH0 PUSH2 0xAAE DUP3 PUSH2 0x9F7 JUMP JUMPDEST PUSH2 0xAB8 DUP2 DUP6 PUSH2 0xA01 JUMP JUMPDEST SWAP4 POP PUSH2 0xAC3 DUP4 PUSH2 0xA0B JUMP JUMPDEST DUP1 PUSH0 JUMPDEST DUP4 DUP2 LT ISZERO PUSH2 0xAFA JUMPI PUSH2 0xAD7 DUP3 PUSH2 0xA86 JUMP JUMPDEST PUSH2 0xAE1 DUP9 DUP3 PUSH2 0xA2C JUMP JUMPDEST SWAP8 POP PUSH2 0xAEC DUP4 PUSH2 0xA98 JUMP JUMPDEST SWAP3 POP POP PUSH1 0x1 DUP2 ADD SWAP1 POP PUSH2 0xAC6 JUMP JUMPDEST POP DUP6 SWAP4 POP POP POP POP SWAP3 SWAP2 POP POP JUMP JUMPDEST PUSH0 PUSH2 0xB12 DUP3 DUP7 PUSH2 0x9C0 JUMP JUMPDEST PUSH1 0x20 DUP3 ADD SWAP2 POP PUSH2 0xB22 DUP3 DUP6 PUSH2 0x9E0 JUMP JUMPDEST PUSH1 0x20 DUP3 ADD SWAP2 POP PUSH2 0xB32 DUP3 DUP5 PUSH2 0xAA4 JUMP JUMPDEST SWAP2 POP DUP2 SWAP1 POP SWAP5 SWAP4 POP POP POP POP JUMP INVALID LOG2 PUSH5 0x6970667358 0x22 SLT KECCAK256 0xBD DUP1 CALLER 0xF6 EXP 0x26 MOD PUSH13 0x90EF24C5017AE4A9A914D07A1F 0xBA SLT INVALID 0xDA 0xC2 0x22 0xEC CALLER ADDMOD 0x1E MSTORE PUSH5 0x736F6C6343 STOP ADDMOD NOT STOP CALLER "
				},
				"gasEstimates": {
					"creation": {
						"codeDepositCost": "586600",
						"executionCost": "24882",
						"totalCost": "611482"
					},
					"external": {
						"getPlayers()": "infinite",
						"join()": "48763",
						"manager()": "2483",
						"pickWinner()": "infinite",
						"players(uint256)": "5010"
					},
					"internal": {
						"random()": "infinite"
					}
				},
				"methodIdentifiers": {
					"getPlayers()": "8b5b9ccc",
					"join()": "b688a363",
					"manager()": "481c6a75",
					"pickWinner()": "5d495aea",
					"players(uint256)": "f71d96cb"
				}
			},
			"storageLayout": {
				"storage": [
					{
						"astId": 3,
						"contract": "contracts/Lottery/001.sol:lottery",
						"label": "manager",
						"offset": 0,
						"slot": "0",
						"type": "t_address"
					},
					{
						"astId": 6,
						"contract": "contracts/Lottery/001.sol:lottery",
						"label": "players",
						"offset": 0,
						"slot": "1",
						"type": "t_array(t_address)dyn_storage"
					}
				],
				"types": {
					"t_address": {
						"encoding": "inplace",
						"label": "address",
						"numberOfBytes": "20"
					},
					"t_array(t_address)dyn_storage": {
						"base": "t_address",
						"encoding": "dynamic_array",
						"label": "address[]",
						"numberOfBytes": "32"
					}
				}
			},
			"userdoc": {
				"kind": "user",
				"methods": {},
				"version": 1
			}
		}
	}
}